{
  "_format": "hh-sol-artifact-1",
  "contractName": "SwappingContract",
  "sourceName": "contracts/Swapping.sol",
  "abi": [
    {
      "inputs": [],
      "stateMutability": "nonpayable",
      "type": "constructor"
    },
    {
      "anonymous": false,
      "inputs": [
        {
          "indexed": false,
          "internalType": "uint256",
          "name": "newRatio",
          "type": "uint256"
        }
      ],
      "name": "AtoBSwapRatioUpdated",
      "type": "event"
    },
    {
      "anonymous": false,
      "inputs": [
        {
          "indexed": false,
          "internalType": "uint256",
          "name": "newRatio",
          "type": "uint256"
        }
      ],
      "name": "BtoASwapRatioUpdated",
      "type": "event"
    },
    {
      "anonymous": false,
      "inputs": [
        {
          "indexed": false,
          "internalType": "uint256",
          "name": "newRatio",
          "type": "uint256"
        }
      ],
      "name": "BuyARatioUpdated",
      "type": "event"
    },
    {
      "anonymous": false,
      "inputs": [
        {
          "indexed": false,
          "internalType": "uint256",
          "name": "newRatio",
          "type": "uint256"
        }
      ],
      "name": "BuyBRatioUpdated",
      "type": "event"
    },
    {
      "anonymous": false,
      "inputs": [
        {
          "indexed": false,
          "internalType": "address",
          "name": "newFeeAddress",
          "type": "address"
        }
      ],
      "name": "FeeAddressUpdated",
      "type": "event"
    },
    {
      "anonymous": false,
      "inputs": [
        {
          "indexed": false,
          "internalType": "uint256",
          "name": "newFeePercentage",
          "type": "uint256"
        }
      ],
      "name": "FeePercentageUpdated",
      "type": "event"
    },
    {
      "anonymous": false,
      "inputs": [
        {
          "indexed": false,
          "internalType": "uint256",
          "name": "newMaxSwapAmountForA",
          "type": "uint256"
        }
      ],
      "name": "MaxSwapAmountForAUpdated",
      "type": "event"
    },
    {
      "anonymous": false,
      "inputs": [
        {
          "indexed": false,
          "internalType": "uint256",
          "name": "newMaxSwapAmountForB",
          "type": "uint256"
        }
      ],
      "name": "MaxSwapAmountForBUpdated",
      "type": "event"
    },
    {
      "anonymous": false,
      "inputs": [
        {
          "indexed": true,
          "internalType": "address",
          "name": "previousOwner",
          "type": "address"
        },
        {
          "indexed": true,
          "internalType": "address",
          "name": "newOwner",
          "type": "address"
        }
      ],
      "name": "OwnershipTransferred",
      "type": "event"
    },
    {
      "anonymous": false,
      "inputs": [
        {
          "indexed": true,
          "internalType": "address",
          "name": "previousOwner",
          "type": "address"
        },
        {
          "indexed": true,
          "internalType": "address",
          "name": "newOwner",
          "type": "address"
        }
      ],
      "name": "OwnershipTransferredUpdate",
      "type": "event"
    },
    {
      "anonymous": false,
      "inputs": [
        {
          "indexed": false,
          "internalType": "uint256",
          "name": "newRatio",
          "type": "uint256"
        }
      ],
      "name": "SellARatioUpdated",
      "type": "event"
    },
    {
      "anonymous": false,
      "inputs": [
        {
          "indexed": false,
          "internalType": "uint256",
          "name": "newRatio",
          "type": "uint256"
        }
      ],
      "name": "SellBRatioUpdated",
      "type": "event"
    },
    {
      "inputs": [],
      "name": "AtoBSwapRatio",
      "outputs": [
        {
          "internalType": "uint256",
          "name": "",
          "type": "uint256"
        }
      ],
      "stateMutability": "view",
      "type": "function"
    },
    {
      "inputs": [],
      "name": "BtoASwapRatio",
      "outputs": [
        {
          "internalType": "uint256",
          "name": "",
          "type": "uint256"
        }
      ],
      "stateMutability": "view",
      "type": "function"
    },
    {
      "inputs": [],
      "name": "DECIMAL",
      "outputs": [
        {
          "internalType": "uint256",
          "name": "",
          "type": "uint256"
        }
      ],
      "stateMutability": "view",
      "type": "function"
    },
    {
      "inputs": [],
      "name": "buyARatio",
      "outputs": [
        {
          "internalType": "uint256",
          "name": "",
          "type": "uint256"
        }
      ],
      "stateMutability": "view",
      "type": "function"
    },
    {
      "inputs": [],
      "name": "buyBRatio",
      "outputs": [
        {
          "internalType": "uint256",
          "name": "",
          "type": "uint256"
        }
      ],
      "stateMutability": "view",
      "type": "function"
    },
    {
      "inputs": [],
      "name": "buyTokenA",
      "outputs": [],
      "stateMutability": "payable",
      "type": "function"
    },
    {
      "inputs": [],
      "name": "buyTokenB",
      "outputs": [],
      "stateMutability": "payable",
      "type": "function"
    },
    {
      "inputs": [],
      "name": "decimalOfA",
      "outputs": [
        {
          "internalType": "uint256",
          "name": "",
          "type": "uint256"
        }
      ],
      "stateMutability": "view",
      "type": "function"
    },
    {
      "inputs": [],
      "name": "decimalOfB",
      "outputs": [
        {
          "internalType": "uint256",
          "name": "",
          "type": "uint256"
        }
      ],
      "stateMutability": "view",
      "type": "function"
    },
    {
      "inputs": [],
      "name": "feeAddress",
      "outputs": [
        {
          "internalType": "address",
          "name": "",
          "type": "address"
        }
      ],
      "stateMutability": "view",
      "type": "function"
    },
    {
      "inputs": [],
      "name": "feePercentage",
      "outputs": [
        {
          "internalType": "uint256",
          "name": "",
          "type": "uint256"
        }
      ],
      "stateMutability": "view",
      "type": "function"
    },
    {
      "inputs": [],
      "name": "maxSupply",
      "outputs": [
        {
          "internalType": "uint256",
          "name": "",
          "type": "uint256"
        }
      ],
      "stateMutability": "view",
      "type": "function"
    },
    {
      "inputs": [],
      "name": "maxSwapAmountForA",
      "outputs": [
        {
          "internalType": "uint256",
          "name": "",
          "type": "uint256"
        }
      ],
      "stateMutability": "view",
      "type": "function"
    },
    {
      "inputs": [],
      "name": "maxSwapAmountForB",
      "outputs": [
        {
          "internalType": "uint256",
          "name": "",
          "type": "uint256"
        }
      ],
      "stateMutability": "view",
      "type": "function"
    },
    {
      "inputs": [],
      "name": "owner",
      "outputs": [
        {
          "internalType": "address",
          "name": "",
          "type": "address"
        }
      ],
      "stateMutability": "view",
      "type": "function"
    },
    {
      "inputs": [],
      "name": "renounceOwnership",
      "outputs": [],
      "stateMutability": "nonpayable",
      "type": "function"
    },
    {
      "inputs": [],
      "name": "sellARatio",
      "outputs": [
        {
          "internalType": "uint256",
          "name": "",
          "type": "uint256"
        }
      ],
      "stateMutability": "view",
      "type": "function"
    },
    {
      "inputs": [],
      "name": "sellBRatio",
      "outputs": [
        {
          "internalType": "uint256",
          "name": "",
          "type": "uint256"
        }
      ],
      "stateMutability": "view",
      "type": "function"
    },
    {
      "inputs": [
        {
          "internalType": "uint256",
          "name": "ratio",
          "type": "uint256"
        }
      ],
      "name": "setAtoBSwapRatio",
      "outputs": [],
      "stateMutability": "nonpayable",
      "type": "function"
    },
    {
      "inputs": [],
      "name": "setAtoBSwapRatioAsDefault",
      "outputs": [],
      "stateMutability": "nonpayable",
      "type": "function"
    },
    {
      "inputs": [
        {
          "internalType": "uint256",
          "name": "ratio",
          "type": "uint256"
        }
      ],
      "name": "setBtoASwapRatio",
      "outputs": [],
      "stateMutability": "nonpayable",
      "type": "function"
    },
    {
      "inputs": [],
      "name": "setBtoASwapRatioAsDefault",
      "outputs": [],
      "stateMutability": "nonpayable",
      "type": "function"
    },
    {
      "inputs": [
        {
          "internalType": "uint256",
          "name": "ratio",
          "type": "uint256"
        }
      ],
      "name": "setBuyARatio",
      "outputs": [],
      "stateMutability": "nonpayable",
      "type": "function"
    },
    {
      "inputs": [
        {
          "internalType": "uint256",
          "name": "ratio",
          "type": "uint256"
        }
      ],
      "name": "setBuyBRatio",
      "outputs": [],
      "stateMutability": "nonpayable",
      "type": "function"
    },
    {
      "inputs": [
        {
          "internalType": "address",
          "name": "_feeAddress",
          "type": "address"
        }
      ],
      "name": "setFeeAddress",
      "outputs": [],
      "stateMutability": "nonpayable",
      "type": "function"
    },
    {
      "inputs": [
        {
          "internalType": "uint256",
          "name": "_percentage",
          "type": "uint256"
        }
      ],
      "name": "setFeePercentage",
      "outputs": [],
      "stateMutability": "nonpayable",
      "type": "function"
    },
    {
      "inputs": [
        {
          "internalType": "uint256",
          "name": "_amount",
          "type": "uint256"
        }
      ],
      "name": "setMaxSwapAmountForA",
      "outputs": [],
      "stateMutability": "nonpayable",
      "type": "function"
    },
    {
      "inputs": [
        {
          "internalType": "uint256",
          "name": "_amount",
          "type": "uint256"
        }
      ],
      "name": "setMaxSwapAmountForB",
      "outputs": [],
      "stateMutability": "nonpayable",
      "type": "function"
    },
    {
      "inputs": [
        {
          "internalType": "address",
          "name": "newOwner",
          "type": "address"
        }
      ],
      "name": "setNewOwnership",
      "outputs": [],
      "stateMutability": "nonpayable",
      "type": "function"
    },
    {
      "inputs": [
        {
          "internalType": "uint256",
          "name": "ratio",
          "type": "uint256"
        }
      ],
      "name": "setSellARatio",
      "outputs": [],
      "stateMutability": "nonpayable",
      "type": "function"
    },
    {
      "inputs": [],
      "name": "setSellARatioAsDefault",
      "outputs": [],
      "stateMutability": "nonpayable",
      "type": "function"
    },
    {
      "inputs": [
        {
          "internalType": "uint256",
          "name": "ratio",
          "type": "uint256"
        }
      ],
      "name": "setSellBRatio",
      "outputs": [],
      "stateMutability": "nonpayable",
      "type": "function"
    },
    {
      "inputs": [],
      "name": "setSellBRatioAsDefault",
      "outputs": [],
      "stateMutability": "nonpayable",
      "type": "function"
    },
    {
      "inputs": [
        {
          "internalType": "uint256",
          "name": "_amount",
          "type": "uint256"
        }
      ],
      "name": "swapAtoB",
      "outputs": [],
      "stateMutability": "nonpayable",
      "type": "function"
    },
    {
      "inputs": [
        {
          "internalType": "uint256",
          "name": "_amount",
          "type": "uint256"
        }
      ],
      "name": "swapAtoMatic",
      "outputs": [],
      "stateMutability": "nonpayable",
      "type": "function"
    },
    {
      "inputs": [
        {
          "internalType": "uint256",
          "name": "_amount",
          "type": "uint256"
        }
      ],
      "name": "swapBtoA",
      "outputs": [],
      "stateMutability": "nonpayable",
      "type": "function"
    },
    {
      "inputs": [
        {
          "internalType": "uint256",
          "name": "_amount",
          "type": "uint256"
        }
      ],
      "name": "swapBtoMatic",
      "outputs": [],
      "stateMutability": "nonpayable",
      "type": "function"
    },
    {
      "inputs": [],
      "name": "tokenA",
      "outputs": [
        {
          "internalType": "contract IERC20",
          "name": "",
          "type": "address"
        }
      ],
      "stateMutability": "view",
      "type": "function"
    },
    {
      "inputs": [],
      "name": "tokenB",
      "outputs": [
        {
          "internalType": "contract IERC20",
          "name": "",
          "type": "address"
        }
      ],
      "stateMutability": "view",
      "type": "function"
    },
    {
      "inputs": [
        {
          "internalType": "address",
          "name": "",
          "type": "address"
        }
      ],
      "name": "tokenBalanceA",
      "outputs": [
        {
          "internalType": "uint256",
          "name": "",
          "type": "uint256"
        }
      ],
      "stateMutability": "view",
      "type": "function"
    },
    {
      "inputs": [
        {
          "internalType": "address",
          "name": "",
          "type": "address"
        }
      ],
      "name": "tokenBalanceB",
      "outputs": [
        {
          "internalType": "uint256",
          "name": "",
          "type": "uint256"
        }
      ],
      "stateMutability": "view",
      "type": "function"
    },
    {
      "inputs": [
        {
          "internalType": "address",
          "name": "newOwner",
          "type": "address"
        }
      ],
      "name": "transferOwnership",
      "outputs": [],
      "stateMutability": "nonpayable",
      "type": "function"
    }
  ],
  "bytecode": "0x608060405264e8d4a51000600355600160055564e8d4a51000600655620f4240600755600654600162000033919062000326565b600855600754600162000047919062000326565b60095560065460016200005b919062000326565b600a5560075460016200006f919062000326565b600b55600654600162000083919062000326565b600c55600754600162000097919062000326565b600d55348015620000a757600080fd5b50620000c8620000bc6200020560201b60201c565b6200020d60201b60201c565b600354604051620000d990620002d1565b620000e5919062000382565b604051809103906000f08015801562000102573d6000803e3d6000fd5b50600160006101000a81548173ffffffffffffffffffffffffffffffffffffffff021916908373ffffffffffffffffffffffffffffffffffffffff1602179055506003546040516200015490620002df565b62000160919062000382565b604051809103906000f0801580156200017d573d6000803e3d6000fd5b50600260006101000a81548173ffffffffffffffffffffffffffffffffffffffff021916908373ffffffffffffffffffffffffffffffffffffffff16021790555033600460006101000a81548173ffffffffffffffffffffffffffffffffffffffff021916908373ffffffffffffffffffffffffffffffffffffffff1602179055506200039f565b600033905090565b60008060009054906101000a900473ffffffffffffffffffffffffffffffffffffffff169050816000806101000a81548173ffffffffffffffffffffffffffffffffffffffff021916908373ffffffffffffffffffffffffffffffffffffffff1602179055508173ffffffffffffffffffffffffffffffffffffffff168173ffffffffffffffffffffffffffffffffffffffff167f8be0079c531659141344cd1fd0a4f28419497f9722a3daafe3b4186f6b6457e060405160405180910390a35050565b611bac806200390d83390190565b611bac80620054b983390190565b6000819050919050565b7f4e487b7100000000000000000000000000000000000000000000000000000000600052601160045260246000fd5b60006200033382620002ed565b91506200034083620002ed565b92508282026200035081620002ed565b915082820484148315176200036a5762000369620002f7565b5b5092915050565b6200037c81620002ed565b82525050565b600060208201905062000399600083018462000371565b92915050565b61355e80620003af6000396000f3fe6080604052600436106102515760003560e01c806380269e4411610139578063d8c6d316116100b6578063e979d0c11161007a578063e979d0c1146107d6578063f0bb94f314610801578063f2fde38b1461082c578063fa4dced214610855578063fb57f62b14610880578063ff902a80146108ab57610251565b8063d8c6d31614610707578063da0d673514610730578063e0441df014610759578063e4f742f214610782578063e7d4051d146107ab57610251565b8063ae06c1b7116100fd578063ae06c1b714610634578063b42507e11461065d578063c125964f14610688578063d2025996146106b1578063d5abeb01146106dc57610251565b806380269e44146105635780638705fcd41461058c5780638da5cb5b146105b557806397bb46e1146105e0578063a001ecdd1461060957610251565b8063438390bb116101d25780636222e4cd116101965780636222e4cd1461049a5780636ab55fd9146104b1578063715018a6146104dc578063764c9b3d146104f357806378c24ca51461051c5780637e446a861461055957610251565b8063438390bb146103c957806359acbd27146103f25780635b890ea61461041b5780635e9c4dc6146104465780635f64b55b1461046f57610251565b806321c8449f1161021957806321c8449f1461032957806321ca1c2f14610354578063266e496e1461037d5780632a56baa914610394578063412753581461039e57610251565b806304577ea5146102565780630d16d140146102935780630fc63d10146102bc57806310e8d469146102e75780631d7f2eda14610312575b600080fd5b34801561026257600080fd5b5061027d600480360381019061027891906128ee565b6108c2565b60405161028a9190612934565b60405180910390f35b34801561029f57600080fd5b506102ba60048036038101906102b5919061297b565b6108da565b005b3480156102c857600080fd5b506102d1610923565b6040516102de9190612a07565b60405180910390f35b3480156102f357600080fd5b506102fc610949565b6040516103099190612934565b60405180910390f35b34801561031e57600080fd5b5061032761094f565b005b34801561033557600080fd5b5061033e6109a8565b60405161034b9190612934565b60405180910390f35b34801561036057600080fd5b5061037b600480360381019061037691906128ee565b6109ae565b005b34801561038957600080fd5b50610392610a23565b005b61039c610a89565b005b3480156103aa57600080fd5b506103b3610e1c565b6040516103c09190612a31565b60405180910390f35b3480156103d557600080fd5b506103f060048036038101906103eb919061297b565b610e42565b005b3480156103fe57600080fd5b506104196004803603810190610414919061297b565b610e8b565b005b34801561042757600080fd5b50610430610ed4565b60405161043d9190612934565b60405180910390f35b34801561045257600080fd5b5061046d6004803603810190610468919061297b565b610eda565b005b34801561047b57600080fd5b50610484610f23565b6040516104919190612a07565b60405180910390f35b3480156104a657600080fd5b506104af610f49565b005b3480156104bd57600080fd5b506104c6610faf565b6040516104d39190612934565b60405180910390f35b3480156104e857600080fd5b506104f1610fbb565b005b3480156104ff57600080fd5b5061051a6004803603810190610515919061297b565b610fcf565b005b34801561052857600080fd5b50610543600480360381019061053e91906128ee565b611018565b6040516105509190612934565b60405180910390f35b610561611030565b005b34801561056f57600080fd5b5061058a6004803603810190610585919061297b565b6113c5565b005b34801561059857600080fd5b506105b360048036038101906105ae91906128ee565b61168f565b005b3480156105c157600080fd5b506105ca611712565b6040516105d79190612a31565b60405180910390f35b3480156105ec57600080fd5b506106076004803603810190610602919061297b565b61173b565b005b34801561061557600080fd5b5061061e611784565b60405161062b9190612934565b60405180910390f35b34801561064057600080fd5b5061065b6004803603810190610656919061297b565b61178a565b005b34801561066957600080fd5b506106726117d3565b60405161067f9190612934565b60405180910390f35b34801561069457600080fd5b506106af60048036038101906106aa919061297b565b6117d9565b005b3480156106bd57600080fd5b506106c6611aa5565b6040516106d39190612934565b60405180910390f35b3480156106e857600080fd5b506106f1611aab565b6040516106fe9190612934565b60405180910390f35b34801561071357600080fd5b5061072e6004803603810190610729919061297b565b611ab1565b005b34801561073c57600080fd5b506107576004803603810190610752919061297b565b611afa565b005b34801561076557600080fd5b50610780600480360381019061077b919061297b565b61206f565b005b34801561078e57600080fd5b506107a960048036038101906107a4919061297b565b6125e4565b005b3480156107b757600080fd5b506107c061262d565b6040516107cd9190612934565b60405180910390f35b3480156107e257600080fd5b506107eb612633565b6040516107f89190612934565b60405180910390f35b34801561080d57600080fd5b50610816612639565b6040516108239190612934565b60405180910390f35b34801561083857600080fd5b50610853600480360381019061084e91906128ee565b61263f565b005b34801561086157600080fd5b5061086a6126c2565b6040516108779190612934565b60405180910390f35b34801561088c57600080fd5b506108956126c8565b6040516108a29190612934565b60405180910390f35b3480156108b757600080fd5b506108c06126ce565b005b60106020528060005260406000206000915090505481565b6108e2612741565b80600a819055507fc4531c573acc68265fbbd4034881b699947e597225d048e2c69ab9df1a51cefc816040516109189190612934565b60405180910390a150565b600160009054906101000a900473ffffffffffffffffffffffffffffffffffffffff1681565b600a5481565b610957612741565b6009546008546109679190612aaa565b600b819055507f10b5f70f12b7d25a32789b0bef9ca042cf6d49a4ee84dec7b92683e85dc5c863600b5460405161099e9190612934565b60405180910390a1565b600f5481565b6109b6612741565b6109bf8161263f565b8073ffffffffffffffffffffffffffffffffffffffff166109de611712565b73ffffffffffffffffffffffffffffffffffffffff167f3c540c3d407d1a9840cdfaa35d698a7f6d1d517f735342220f2b4fbe054d9c3860405160405180910390a350565b610a2b612741565b600954600754600754610a3e9190612adb565b610a489190612aaa565b600d819055507f3e713ddd595da9927c980e4049af0a6c4c1646ed14cd46852a97574ba695ab08600d54604051610a7f9190612934565b60405180910390a1565b600034905060006103e860055434610aa19190612adb565b610aab9190612aaa565b905060008183610abb9190612b1d565b905060008111610b00576040517f08c379a0000000000000000000000000000000000000000000000000000000008152600401610af790612bae565b60405180910390fd5b6000600754670de0b6b3a7640000610b189190612adb565b620f424060095484610b2a9190612adb565b610b349190612adb565b610b3e9190612aaa565b9050813373ffffffffffffffffffffffffffffffffffffffff16311015610b9a576040517f08c379a0000000000000000000000000000000000000000000000000000000008152600401610b9190612c1a565b60405180910390fd5b80600260009054906101000a900473ffffffffffffffffffffffffffffffffffffffff1673ffffffffffffffffffffffffffffffffffffffff166370a08231306040518263ffffffff1660e01b8152600401610bf69190612a31565b602060405180830381865afa158015610c13573d6000803e3d6000fd5b505050506040513d601f19601f82011682018060405250810190610c379190612c4f565b1015610c78576040517f08c379a0000000000000000000000000000000000000000000000000000000008152600401610c6f90612cee565b60405180910390fd5b80601160003373ffffffffffffffffffffffffffffffffffffffff1673ffffffffffffffffffffffffffffffffffffffff1681526020019081526020016000206000828254610cc79190612d0e565b92505081905550600460009054906101000a900473ffffffffffffffffffffffffffffffffffffffff1673ffffffffffffffffffffffffffffffffffffffff166108fc849081150290604051600060405180830381858888f19350505050158015610d36573d6000803e3d6000fd5b50600260009054906101000a900473ffffffffffffffffffffffffffffffffffffffff1673ffffffffffffffffffffffffffffffffffffffff1663a9059cbb33836040518363ffffffff1660e01b8152600401610d94929190612d42565b6020604051808303816000875af1158015610db3573d6000803e3d6000fd5b505050506040513d601f19601f82011682018060405250810190610dd79190612da3565b610e16576040517f08c379a0000000000000000000000000000000000000000000000000000000008152600401610e0d90612e1c565b60405180910390fd5b50505050565b600460009054906101000a900473ffffffffffffffffffffffffffffffffffffffff1681565b610e4a612741565b80600e819055507f1f06f196fce84507f217ddb09f52cfd6468d616c5f21d09e35688b7342801e6881604051610e809190612934565b60405180910390a150565b610e93612741565b806009819055507f0db074be26f615284095878ca98adc66c409523c669c3530ca706b5f55140f3481604051610ec99190612934565b60405180910390a150565b60065481565b610ee2612741565b806008819055507fde66b499f5643f08d8eb0029270af8509a8fa31c2c749655a00b78d923ebfa6481604051610f189190612934565b60405180910390a150565b600260009054906101000a900473ffffffffffffffffffffffffffffffffffffffff1681565b610f51612741565b600854600654600654610f649190612adb565b610f6e9190612aaa565b600c819055507f5318421a3882cc44d0a2f594169dbaeadd2b8c5597611e77ece05548a7a026b3600c54604051610fa59190612934565b60405180910390a1565b670de0b6b3a764000081565b610fc3612741565b610fcd60006127bf565b565b610fd7612741565b80600d819055507f3e713ddd595da9927c980e4049af0a6c4c1646ed14cd46852a97574ba695ab088160405161100d9190612934565b60405180910390a150565b60116020528060005260406000206000915090505481565b600034905060006103e8600554346110489190612adb565b6110529190612aaa565b9050600081836110629190612b1d565b9050600081116110a7576040517f08c379a000000000000000000000000000000000000000000000000000000000815260040161109e90612bae565b60405180910390fd5b6000600654670de0b6b3a76400006110bf9190612adb565b64e8d4a51000600854846110d39190612adb565b6110dd9190612adb565b6110e79190612aaa565b9050813373ffffffffffffffffffffffffffffffffffffffff16311015611143576040517f08c379a000000000000000000000000000000000000000000000000000000000815260040161113a90612c1a565b60405180910390fd5b80600160009054906101000a900473ffffffffffffffffffffffffffffffffffffffff1673ffffffffffffffffffffffffffffffffffffffff166370a08231306040518263ffffffff1660e01b815260040161119f9190612a31565b602060405180830381865afa1580156111bc573d6000803e3d6000fd5b505050506040513d601f19601f820116820180604052508101906111e09190612c4f565b1015611221576040517f08c379a000000000000000000000000000000000000000000000000000000000815260040161121890612eae565b60405180910390fd5b80601060003373ffffffffffffffffffffffffffffffffffffffff1673ffffffffffffffffffffffffffffffffffffffff16815260200190815260200160002060008282546112709190612d0e565b92505081905550600460009054906101000a900473ffffffffffffffffffffffffffffffffffffffff1673ffffffffffffffffffffffffffffffffffffffff166108fc849081150290604051600060405180830381858888f193505050501580156112df573d6000803e3d6000fd5b50600160009054906101000a900473ffffffffffffffffffffffffffffffffffffffff1673ffffffffffffffffffffffffffffffffffffffff1663a9059cbb33836040518363ffffffff1660e01b815260040161133d929190612d42565b6020604051808303816000875af115801561135c573d6000803e3d6000fd5b505050506040513d601f19601f820116820180604052508101906113809190612da3565b6113bf576040517f08c379a00000000000000000000000000000000000000000000000000000000081526004016113b690612f1a565b60405180910390fd5b50505050565b60008111611408576040517f08c379a00000000000000000000000000000000000000000000000000000000081526004016113ff90612bae565b60405180910390fd5b6000600754620f424061141b9190612adb565b670de0b6b3a7640000600d54846114329190612adb565b61143c9190612adb565b6114469190612aaa565b905081601160003373ffffffffffffffffffffffffffffffffffffffff1673ffffffffffffffffffffffffffffffffffffffff1681526020019081526020016000205410156114ca576040517f08c379a00000000000000000000000000000000000000000000000000000000081526004016114c190612fac565b60405180910390fd5b8047101561150d576040517f08c379a00000000000000000000000000000000000000000000000000000000081526004016115049061303e565b60405180910390fd5b81601160003373ffffffffffffffffffffffffffffffffffffffff1673ffffffffffffffffffffffffffffffffffffffff168152602001908152602001600020600082825461155c9190612b1d565b925050819055503373ffffffffffffffffffffffffffffffffffffffff166108fc829081150290604051600060405180830381858888f193505050501580156115a9573d6000803e3d6000fd5b50600260009054906101000a900473ffffffffffffffffffffffffffffffffffffffff1673ffffffffffffffffffffffffffffffffffffffff166323b872dd3330856040518463ffffffff1660e01b81526004016116099392919061305e565b6020604051808303816000875af1158015611628573d6000803e3d6000fd5b505050506040513d601f19601f8201168201806040525081019061164c9190612da3565b61168b576040517f08c379a000000000000000000000000000000000000000000000000000000000815260040161168290612e1c565b60405180910390fd5b5050565b611697612741565b80600460006101000a81548173ffffffffffffffffffffffffffffffffffffffff021916908373ffffffffffffffffffffffffffffffffffffffff1602179055507f446e39bcf1b47cfadfaa23442cb4b34682cfe6bd9220da084894e3b1f834e4f3816040516117079190612a31565b60405180910390a150565b60008060009054906101000a900473ffffffffffffffffffffffffffffffffffffffff16905090565b611743612741565b80600c819055507f5318421a3882cc44d0a2f594169dbaeadd2b8c5597611e77ece05548a7a026b3816040516117799190612934565b60405180910390a150565b60055481565b611792612741565b806005819055507f74516f05eb4bd2461d57aa1e935ee553f86a3e02bfed7759f2f772915de3d9be816040516117c89190612934565b60405180910390a150565b600e5481565b6000811161181c576040517f08c379a000000000000000000000000000000000000000000000000000000000815260040161181390612bae565b60405180910390fd5b600060065464e8d4a510006118319190612adb565b670de0b6b3a7640000600c54846118489190612adb565b6118529190612adb565b61185c9190612aaa565b905081601060003373ffffffffffffffffffffffffffffffffffffffff1673ffffffffffffffffffffffffffffffffffffffff1681526020019081526020016000205410156118e0576040517f08c379a00000000000000000000000000000000000000000000000000000000081526004016118d790613107565b60405180910390fd5b80471015611923576040517f08c379a000000000000000000000000000000000000000000000000000000000815260040161191a9061303e565b60405180910390fd5b81601060003373ffffffffffffffffffffffffffffffffffffffff1673ffffffffffffffffffffffffffffffffffffffff16815260200190815260200160002060008282546119729190612b1d565b925050819055503373ffffffffffffffffffffffffffffffffffffffff166108fc829081150290604051600060405180830381858888f193505050501580156119bf573d6000803e3d6000fd5b50600160009054906101000a900473ffffffffffffffffffffffffffffffffffffffff1673ffffffffffffffffffffffffffffffffffffffff166323b872dd3330856040518463ffffffff1660e01b8152600401611a1f9392919061305e565b6020604051808303816000875af1158015611a3e573d6000803e3d6000fd5b505050506040513d601f19601f82011682018060405250810190611a629190612da3565b611aa1576040517f08c379a0000000000000000000000000000000000000000000000000000000008152600401611a9890612f1a565b60405180910390fd5b5050565b60085481565b60035481565b611ab9612741565b80600b819055507f10b5f70f12b7d25a32789b0bef9ca042cf6d49a4ee84dec7b92683e85dc5c86381604051611aef9190612934565b60405180910390a150565b60008111611b3d576040517f08c379a0000000000000000000000000000000000000000000000000000000008152600401611b3490612bae565b60405180910390fd5b600e54811115611b82576040517f08c379a0000000000000000000000000000000000000000000000000000000008152600401611b7990613199565b60405180910390fd5b600060065464e8d4a51000611b979190612adb565b620f4240600a5484611ba99190612adb565b611bb39190612adb565b611bbd9190612aaa565b905081601060003373ffffffffffffffffffffffffffffffffffffffff1673ffffffffffffffffffffffffffffffffffffffff168152602001908152602001600020541015611c41576040517f08c379a0000000000000000000000000000000000000000000000000000000008152600401611c3890613107565b60405180910390fd5b80600260009054906101000a900473ffffffffffffffffffffffffffffffffffffffff1673ffffffffffffffffffffffffffffffffffffffff166370a08231306040518263ffffffff1660e01b8152600401611c9d9190612a31565b602060405180830381865afa158015611cba573d6000803e3d6000fd5b505050506040513d601f19601f82011682018060405250810190611cde9190612c4f565b1015611d1f576040517f08c379a0000000000000000000000000000000000000000000000000000000008152600401611d169061322b565b60405180910390fd5b81601060003373ffffffffffffffffffffffffffffffffffffffff1673ffffffffffffffffffffffffffffffffffffffff1681526020019081526020016000206000828254611d6e9190612b1d565b9250508190555080601160003373ffffffffffffffffffffffffffffffffffffffff1673ffffffffffffffffffffffffffffffffffffffff1681526020019081526020016000206000828254611dc49190612d0e565b9250508190555081600160009054906101000a900473ffffffffffffffffffffffffffffffffffffffff1673ffffffffffffffffffffffffffffffffffffffff1663dd62ed3e33306040518363ffffffff1660e01b8152600401611e2992919061324b565b602060405180830381865afa158015611e46573d6000803e3d6000fd5b505050506040513d601f19601f82011682018060405250810190611e6a9190612c4f565b1015611eab576040517f08c379a0000000000000000000000000000000000000000000000000000000008152600401611ea2906132e6565b60405180910390fd5b600160009054906101000a900473ffffffffffffffffffffffffffffffffffffffff1673ffffffffffffffffffffffffffffffffffffffff166323b872dd3330856040518463ffffffff1660e01b8152600401611f0a9392919061305e565b6020604051808303816000875af1158015611f29573d6000803e3d6000fd5b505050506040513d601f19601f82011682018060405250810190611f4d9190612da3565b611f8c576040517f08c379a0000000000000000000000000000000000000000000000000000000008152600401611f8390612f1a565b60405180910390fd5b600260009054906101000a900473ffffffffffffffffffffffffffffffffffffffff1673ffffffffffffffffffffffffffffffffffffffff1663a9059cbb33836040518363ffffffff1660e01b8152600401611fe9929190612d42565b6020604051808303816000875af1158015612008573d6000803e3d6000fd5b505050506040513d601f19601f8201168201806040525081019061202c9190612da3565b61206b576040517f08c379a000000000000000000000000000000000000000000000000000000000815260040161206290612e1c565b60405180910390fd5b5050565b600081116120b2576040517f08c379a00000000000000000000000000000000000000000000000000000000081526004016120a990612bae565b60405180910390fd5b600f548111156120f7576040517f08c379a00000000000000000000000000000000000000000000000000000000081526004016120ee90613378565b60405180910390fd5b6000600754620f424061210a9190612adb565b64e8d4a51000600b548461211e9190612adb565b6121289190612adb565b6121329190612aaa565b905081601160003373ffffffffffffffffffffffffffffffffffffffff1673ffffffffffffffffffffffffffffffffffffffff1681526020019081526020016000205410156121b6576040517f08c379a00000000000000000000000000000000000000000000000000000000081526004016121ad90612fac565b60405180910390fd5b81600260009054906101000a900473ffffffffffffffffffffffffffffffffffffffff1673ffffffffffffffffffffffffffffffffffffffff1663dd62ed3e33306040518363ffffffff1660e01b815260040161221492919061324b565b602060405180830381865afa158015612231573d6000803e3d6000fd5b505050506040513d601f19601f820116820180604052508101906122559190612c4f565b1015612296576040517f08c379a000000000000000000000000000000000000000000000000000000000815260040161228d9061340a565b60405180910390fd5b80600160009054906101000a900473ffffffffffffffffffffffffffffffffffffffff1673ffffffffffffffffffffffffffffffffffffffff166370a08231306040518263ffffffff1660e01b81526004016122f29190612a31565b602060405180830381865afa15801561230f573d6000803e3d6000fd5b505050506040513d601f19601f820116820180604052508101906123339190612c4f565b1015612374576040517f08c379a000000000000000000000000000000000000000000000000000000000815260040161236b90612eae565b60405180910390fd5b81601160003373ffffffffffffffffffffffffffffffffffffffff1673ffffffffffffffffffffffffffffffffffffffff16815260200190815260200160002060008282546123c39190612b1d565b9250508190555080601060003373ffffffffffffffffffffffffffffffffffffffff1673ffffffffffffffffffffffffffffffffffffffff16815260200190815260200160002060008282546124199190612d0e565b92505081905550600260009054906101000a900473ffffffffffffffffffffffffffffffffffffffff1673ffffffffffffffffffffffffffffffffffffffff166323b872dd3330856040518463ffffffff1660e01b815260040161247f9392919061305e565b6020604051808303816000875af115801561249e573d6000803e3d6000fd5b505050506040513d601f19601f820116820180604052508101906124c29190612da3565b612501576040517f08c379a00000000000000000000000000000000000000000000000000000000081526004016124f890612e1c565b60405180910390fd5b600160009054906101000a900473ffffffffffffffffffffffffffffffffffffffff1673ffffffffffffffffffffffffffffffffffffffff1663a9059cbb33836040518363ffffffff1660e01b815260040161255e929190612d42565b6020604051808303816000875af115801561257d573d6000803e3d6000fd5b505050506040513d601f19601f820116820180604052508101906125a19190612da3565b6125e0576040517f08c379a00000000000000000000000000000000000000000000000000000000081526004016125d790612f1a565b60405180910390fd5b5050565b6125ec612741565b80600f819055507f8a82f9fa31c6848cb8b870a3f7b85d7c02a6d82253683a715a7a3f82e77dab66816040516126229190612934565b60405180910390a150565b60095481565b600d5481565b60075481565b612647612741565b600073ffffffffffffffffffffffffffffffffffffffff168173ffffffffffffffffffffffffffffffffffffffff16036126b6576040517f08c379a00000000000000000000000000000000000000000000000000000000081526004016126ad9061349c565b60405180910390fd5b6126bf816127bf565b50565b600c5481565b600b5481565b6126d6612741565b6006546008546007546009546126ec9190612adb565b6126f69190612aaa565b6127009190612adb565b600a819055507fc4531c573acc68265fbbd4034881b699947e597225d048e2c69ab9df1a51cefc600a546040516127379190612934565b60405180910390a1565b612749612883565b73ffffffffffffffffffffffffffffffffffffffff16612767611712565b73ffffffffffffffffffffffffffffffffffffffff16146127bd576040517f08c379a00000000000000000000000000000000000000000000000000000000081526004016127b490613508565b60405180910390fd5b565b60008060009054906101000a900473ffffffffffffffffffffffffffffffffffffffff169050816000806101000a81548173ffffffffffffffffffffffffffffffffffffffff021916908373ffffffffffffffffffffffffffffffffffffffff1602179055508173ffffffffffffffffffffffffffffffffffffffff168173ffffffffffffffffffffffffffffffffffffffff167f8be0079c531659141344cd1fd0a4f28419497f9722a3daafe3b4186f6b6457e060405160405180910390a35050565b600033905090565b600080fd5b600073ffffffffffffffffffffffffffffffffffffffff82169050919050565b60006128bb82612890565b9050919050565b6128cb816128b0565b81146128d657600080fd5b50565b6000813590506128e8816128c2565b92915050565b6000602082840312156129045761290361288b565b5b6000612912848285016128d9565b91505092915050565b6000819050919050565b61292e8161291b565b82525050565b60006020820190506129496000830184612925565b92915050565b6129588161291b565b811461296357600080fd5b50565b6000813590506129758161294f565b92915050565b6000602082840312156129915761299061288b565b5b600061299f84828501612966565b91505092915050565b6000819050919050565b60006129cd6129c86129c384612890565b6129a8565b612890565b9050919050565b60006129df826129b2565b9050919050565b60006129f1826129d4565b9050919050565b612a01816129e6565b82525050565b6000602082019050612a1c60008301846129f8565b92915050565b612a2b816128b0565b82525050565b6000602082019050612a466000830184612a22565b92915050565b7f4e487b7100000000000000000000000000000000000000000000000000000000600052601260045260246000fd5b7f4e487b7100000000000000000000000000000000000000000000000000000000600052601160045260246000fd5b6000612ab58261291b565b9150612ac08361291b565b925082612ad057612acf612a4c565b5b828204905092915050565b6000612ae68261291b565b9150612af18361291b565b9250828202612aff8161291b565b91508282048414831517612b1657612b15612a7b565b5b5092915050565b6000612b288261291b565b9150612b338361291b565b9250828203905081811115612b4b57612b4a612a7b565b5b92915050565b600082825260208201905092915050565b7f496e76616c696420616d6f756e74000000000000000000000000000000000000600082015250565b6000612b98600e83612b51565b9150612ba382612b62565b602082019050919050565b60006020820190508181036000830152612bc781612b8b565b9050919050565b7f796f75204861766520496e73756666696369656e742062616c616e6365000000600082015250565b6000612c04601d83612b51565b9150612c0f82612bce565b602082019050919050565b60006020820190508181036000830152612c3381612bf7565b9050919050565b600081519050612c498161294f565b92915050565b600060208284031215612c6557612c6461288b565b5b6000612c7384828501612c3a565b91505092915050565b7f496e73756666696369656e742062616c616e6365206f6620746f6b656e42206960008201527f6e20436f6e747261637400000000000000000000000000000000000000000000602082015250565b6000612cd8602a83612b51565b9150612ce382612c7c565b604082019050919050565b60006020820190508181036000830152612d0781612ccb565b9050919050565b6000612d198261291b565b9150612d248361291b565b9250828201905080821115612d3c57612d3b612a7b565b5b92915050565b6000604082019050612d576000830185612a22565b612d646020830184612925565b9392505050565b60008115159050919050565b612d8081612d6b565b8114612d8b57600080fd5b50565b600081519050612d9d81612d77565b92915050565b600060208284031215612db957612db861288b565b5b6000612dc784828501612d8e565b91505092915050565b7f5472616e7366657220546f6b656e2042206661696c6564000000000000000000600082015250565b6000612e06601783612b51565b9150612e1182612dd0565b602082019050919050565b60006020820190508181036000830152612e3581612df9565b9050919050565b7f496e73756666696369656e742062616c616e6365206f6620746f6b656e41206960008201527f6e20636f6e747261637400000000000000000000000000000000000000000000602082015250565b6000612e98602a83612b51565b9150612ea382612e3c565b604082019050919050565b60006020820190508181036000830152612ec781612e8b565b9050919050565b7f5472616e7366657220546f6b656e2041206661696c6564000000000000000000600082015250565b6000612f04601783612b51565b9150612f0f82612ece565b602082019050919050565b60006020820190508181036000830152612f3381612ef7565b9050919050565b7f496e73756666696369656e742062616c616e6365206f6620746f6b656e42206960008201527f6e20757365720000000000000000000000000000000000000000000000000000602082015250565b6000612f96602683612b51565b9150612fa182612f3a565b604082019050919050565b60006020820190508181036000830152612fc581612f89565b9050919050565b7f496e73756666696369656e742062616c616e6365206f66206d6174696320696e60008201527f20636f6e74726163740000000000000000000000000000000000000000000000602082015250565b6000613028602983612b51565b915061303382612fcc565b604082019050919050565b600060208201905081810360008301526130578161301b565b9050919050565b60006060820190506130736000830186612a22565b6130806020830185612a22565b61308d6040830184612925565b949350505050565b7f496e73756666696369656e742062616c616e6365206f6620746f6b656e41206960008201527f6e20757365720000000000000000000000000000000000000000000000000000602082015250565b60006130f1602683612b51565b91506130fc82613095565b604082019050919050565b60006020820190508181036000830152613120816130e4565b9050919050565b7f4d6178205377617020416d6f756e7420666f7220546f6b656e2041207265616360008201527f6865640000000000000000000000000000000000000000000000000000000000602082015250565b6000613183602383612b51565b915061318e82613127565b604082019050919050565b600060208201905081810360008301526131b281613176565b9050919050565b7f496e73756666696369656e742062616c616e6365206f6620746f6b656e42206960008201527f6e20636f6e747261637400000000000000000000000000000000000000000000602082015250565b6000613215602a83612b51565b9150613220826131b9565b604082019050919050565b6000602082019050818103600083015261324481613208565b9050919050565b60006040820190506132606000830185612a22565b61326d6020830184612a22565b9392505050565b7f416c6c6f77616e6365206f6620746f6b656e41206973206e6f7420656e6f756760008201527f6800000000000000000000000000000000000000000000000000000000000000602082015250565b60006132d0602183612b51565b91506132db82613274565b604082019050919050565b600060208201905081810360008301526132ff816132c3565b9050919050565b7f4d6178205377617020416d6f756e7420666f7220546f6b656e2042207265616360008201527f6865640000000000000000000000000000000000000000000000000000000000602082015250565b6000613362602383612b51565b915061336d82613306565b604082019050919050565b6000602082019050818103600083015261339181613355565b9050919050565b7f416c6c6f77616e6365206f6620746f6b656e42206973206e6f7420656e6f756760008201527f6800000000000000000000000000000000000000000000000000000000000000602082015250565b60006133f4602183612b51565b91506133ff82613398565b604082019050919050565b60006020820190508181036000830152613423816133e7565b9050919050565b7f4f776e61626c653a206e6577206f776e657220697320746865207a65726f206160008201527f6464726573730000000000000000000000000000000000000000000000000000602082015250565b6000613486602683612b51565b91506134918261342a565b604082019050919050565b600060208201905081810360008301526134b581613479565b9050919050565b7f4f776e61626c653a2063616c6c6572206973206e6f7420746865206f776e6572600082015250565b60006134f2602083612b51565b91506134fd826134bc565b602082019050919050565b60006020820190508181036000830152613521816134e5565b905091905056fea264697066735822122058929ca2b6054ba7e4f1a6b91644a08a205ae09574436d00e43985f4338d4a9164736f6c6343000818003360806040523480156200001157600080fd5b5060405162001bac38038062001bac8339818101604052810190620000379190620002cc565b6040518060400160405280600681526020017f746f6b656e4100000000000000000000000000000000000000000000000000008152506040518060400160405280600681526020017f746f6b656e4100000000000000000000000000000000000000000000000000008152508160039081620000b491906200056e565b508060049081620000c691906200056e565b5050506200010533620000de6200010c60201b60201c565b600a620000ec9190620007e5565b83620000f9919062000836565b6200011560201b60201c565b506200096d565b6000600c905090565b600073ffffffffffffffffffffffffffffffffffffffff168273ffffffffffffffffffffffffffffffffffffffff160362000187576040517f08c379a00000000000000000000000000000000000000000000000000000000081526004016200017e90620008e2565b60405180910390fd5b6200019b600083836200028260201b60201c565b8060026000828254620001af919062000904565b92505081905550806000808473ffffffffffffffffffffffffffffffffffffffff1673ffffffffffffffffffffffffffffffffffffffff168152602001908152602001600020600082825401925050819055508173ffffffffffffffffffffffffffffffffffffffff16600073ffffffffffffffffffffffffffffffffffffffff167fddf252ad1be2c89b69c2b068fc378daa952ba7f163c4a11628f55a4df523b3ef8360405162000262919062000950565b60405180910390a36200027e600083836200028760201b60201c565b5050565b505050565b505050565b600080fd5b6000819050919050565b620002a68162000291565b8114620002b257600080fd5b50565b600081519050620002c6816200029b565b92915050565b600060208284031215620002e557620002e46200028c565b5b6000620002f584828501620002b5565b91505092915050565b600081519050919050565b7f4e487b7100000000000000000000000000000000000000000000000000000000600052604160045260246000fd5b7f4e487b7100000000000000000000000000000000000000000000000000000000600052602260045260246000fd5b600060028204905060018216806200038057607f821691505b60208210810362000396576200039562000338565b5b50919050565b60008190508160005260206000209050919050565b60006020601f8301049050919050565b600082821b905092915050565b600060088302620004007fffffffffffffffffffffffffffffffffffffffffffffffffffffffffffffffff82620003c1565b6200040c8683620003c1565b95508019841693508086168417925050509392505050565b6000819050919050565b60006200044f62000449620004438462000291565b62000424565b62000291565b9050919050565b6000819050919050565b6200046b836200042e565b620004836200047a8262000456565b848454620003ce565b825550505050565b600090565b6200049a6200048b565b620004a781848462000460565b505050565b5b81811015620004cf57620004c360008262000490565b600181019050620004ad565b5050565b601f8211156200051e57620004e8816200039c565b620004f384620003b1565b8101602085101562000503578190505b6200051b6200051285620003b1565b830182620004ac565b50505b505050565b600082821c905092915050565b6000620005436000198460080262000523565b1980831691505092915050565b60006200055e838362000530565b9150826002028217905092915050565b6200057982620002fe565b67ffffffffffffffff81111562000595576200059462000309565b5b620005a1825462000367565b620005ae828285620004d3565b600060209050601f831160018114620005e65760008415620005d1578287015190505b620005dd858262000550565b8655506200064d565b601f198416620005f6866200039c565b60005b828110156200062057848901518255600182019150602085019450602081019050620005f9565b868310156200064057848901516200063c601f89168262000530565b8355505b6001600288020188555050505b505050505050565b7f4e487b7100000000000000000000000000000000000000000000000000000000600052601160045260246000fd5b60008160011c9050919050565b6000808291508390505b6001851115620006e357808604811115620006bb57620006ba62000655565b5b6001851615620006cb5780820291505b8081029050620006db8562000684565b94506200069b565b94509492505050565b600082620006fe5760019050620007d1565b816200070e5760009050620007d1565b8160018114620007275760028114620007325762000768565b6001915050620007d1565b60ff84111562000747576200074662000655565b5b8360020a91508482111562000761576200076062000655565b5b50620007d1565b5060208310610133831016604e8410600b8410161715620007a25782820a9050838111156200079c576200079b62000655565b5b620007d1565b620007b1848484600162000691565b92509050818404811115620007cb57620007ca62000655565b5b81810290505b9392505050565b600060ff82169050919050565b6000620007f28262000291565b9150620007ff83620007d8565b92506200082e7fffffffffffffffffffffffffffffffffffffffffffffffffffffffffffffffff8484620006ec565b905092915050565b6000620008438262000291565b9150620008508362000291565b9250828202620008608162000291565b915082820484148315176200087a576200087962000655565b5b5092915050565b600082825260208201905092915050565b7f45524332303a206d696e7420746f20746865207a65726f206164647265737300600082015250565b6000620008ca601f8362000881565b9150620008d78262000892565b602082019050919050565b60006020820190508181036000830152620008fd81620008bb565b9050919050565b6000620009118262000291565b91506200091e8362000291565b925082820190508082111562000939576200093862000655565b5b92915050565b6200094a8162000291565b82525050565b60006020820190506200096760008301846200093f565b92915050565b61122f806200097d6000396000f3fe608060405234801561001057600080fd5b50600436106100a95760003560e01c80633950935111610071578063395093511461016857806370a082311461019857806395d89b41146101c8578063a457c2d7146101e6578063a9059cbb14610216578063dd62ed3e14610246576100a9565b806306fdde03146100ae578063095ea7b3146100cc57806318160ddd146100fc57806323b872dd1461011a578063313ce5671461014a575b600080fd5b6100b6610276565b6040516100c39190610b0c565b60405180910390f35b6100e660048036038101906100e19190610bc7565b610308565b6040516100f39190610c22565b60405180910390f35b61010461032b565b6040516101119190610c4c565b60405180910390f35b610134600480360381019061012f9190610c67565b610335565b6040516101419190610c22565b60405180910390f35b610152610364565b60405161015f9190610cd6565b60405180910390f35b610182600480360381019061017d9190610bc7565b61036d565b60405161018f9190610c22565b60405180910390f35b6101b260048036038101906101ad9190610cf1565b6103a4565b6040516101bf9190610c4c565b60405180910390f35b6101d06103ec565b6040516101dd9190610b0c565b60405180910390f35b61020060048036038101906101fb9190610bc7565b61047e565b60405161020d9190610c22565b60405180910390f35b610230600480360381019061022b9190610bc7565b6104f5565b60405161023d9190610c22565b60405180910390f35b610260600480360381019061025b9190610d1e565b610518565b60405161026d9190610c4c565b60405180910390f35b60606003805461028590610d8d565b80601f01602080910402602001604051908101604052809291908181526020018280546102b190610d8d565b80156102fe5780601f106102d3576101008083540402835291602001916102fe565b820191906000526020600020905b8154815290600101906020018083116102e157829003601f168201915b5050505050905090565b60008061031361059f565b90506103208185856105a7565b600191505092915050565b6000600254905090565b60008061034061059f565b905061034d858285610770565b6103588585856107fc565b60019150509392505050565b6000600c905090565b60008061037861059f565b905061039981858561038a8589610518565b6103949190610ded565b6105a7565b600191505092915050565b60008060008373ffffffffffffffffffffffffffffffffffffffff1673ffffffffffffffffffffffffffffffffffffffff168152602001908152602001600020549050919050565b6060600480546103fb90610d8d565b80601f016020809104026020016040519081016040528092919081815260200182805461042790610d8d565b80156104745780601f1061044957610100808354040283529160200191610474565b820191906000526020600020905b81548152906001019060200180831161045757829003601f168201915b5050505050905090565b60008061048961059f565b905060006104978286610518565b9050838110156104dc576040517f08c379a00000000000000000000000000000000000000000000000000000000081526004016104d390610e93565b60405180910390fd5b6104e982868684036105a7565b60019250505092915050565b60008061050061059f565b905061050d8185856107fc565b600191505092915050565b6000600160008473ffffffffffffffffffffffffffffffffffffffff1673ffffffffffffffffffffffffffffffffffffffff16815260200190815260200160002060008373ffffffffffffffffffffffffffffffffffffffff1673ffffffffffffffffffffffffffffffffffffffff16815260200190815260200160002054905092915050565b600033905090565b600073ffffffffffffffffffffffffffffffffffffffff168373ffffffffffffffffffffffffffffffffffffffff1603610616576040517f08c379a000000000000000000000000000000000000000000000000000000000815260040161060d90610f25565b60405180910390fd5b600073ffffffffffffffffffffffffffffffffffffffff168273ffffffffffffffffffffffffffffffffffffffff1603610685576040517f08c379a000000000000000000000000000000000000000000000000000000000815260040161067c90610fb7565b60405180910390fd5b80600160008573ffffffffffffffffffffffffffffffffffffffff1673ffffffffffffffffffffffffffffffffffffffff16815260200190815260200160002060008473ffffffffffffffffffffffffffffffffffffffff1673ffffffffffffffffffffffffffffffffffffffff168152602001908152602001600020819055508173ffffffffffffffffffffffffffffffffffffffff168373ffffffffffffffffffffffffffffffffffffffff167f8c5be1e5ebec7d5bd14f71427d1e84f3dd0314c0f7b2291e5b200ac8c7c3b925836040516107639190610c4c565b60405180910390a3505050565b600061077c8484610518565b90507fffffffffffffffffffffffffffffffffffffffffffffffffffffffffffffffff81146107f657818110156107e8576040517f08c379a00000000000000000000000000000000000000000000000000000000081526004016107df90611023565b60405180910390fd5b6107f584848484036105a7565b5b50505050565b600073ffffffffffffffffffffffffffffffffffffffff168373ffffffffffffffffffffffffffffffffffffffff160361086b576040517f08c379a0000000000000000000000000000000000000000000000000000000008152600401610862906110b5565b60405180910390fd5b600073ffffffffffffffffffffffffffffffffffffffff168273ffffffffffffffffffffffffffffffffffffffff16036108da576040517f08c379a00000000000000000000000000000000000000000000000000000000081526004016108d190611147565b60405180910390fd5b6108e5838383610a72565b60008060008573ffffffffffffffffffffffffffffffffffffffff1673ffffffffffffffffffffffffffffffffffffffff1681526020019081526020016000205490508181101561096b576040517f08c379a0000000000000000000000000000000000000000000000000000000008152600401610962906111d9565b60405180910390fd5b8181036000808673ffffffffffffffffffffffffffffffffffffffff1673ffffffffffffffffffffffffffffffffffffffff16815260200190815260200160002081905550816000808573ffffffffffffffffffffffffffffffffffffffff1673ffffffffffffffffffffffffffffffffffffffff168152602001908152602001600020600082825401925050819055508273ffffffffffffffffffffffffffffffffffffffff168473ffffffffffffffffffffffffffffffffffffffff167fddf252ad1be2c89b69c2b068fc378daa952ba7f163c4a11628f55a4df523b3ef84604051610a599190610c4c565b60405180910390a3610a6c848484610a77565b50505050565b505050565b505050565b600081519050919050565b600082825260208201905092915050565b60005b83811015610ab6578082015181840152602081019050610a9b565b60008484015250505050565b6000601f19601f8301169050919050565b6000610ade82610a7c565b610ae88185610a87565b9350610af8818560208601610a98565b610b0181610ac2565b840191505092915050565b60006020820190508181036000830152610b268184610ad3565b905092915050565b600080fd5b600073ffffffffffffffffffffffffffffffffffffffff82169050919050565b6000610b5e82610b33565b9050919050565b610b6e81610b53565b8114610b7957600080fd5b50565b600081359050610b8b81610b65565b92915050565b6000819050919050565b610ba481610b91565b8114610baf57600080fd5b50565b600081359050610bc181610b9b565b92915050565b60008060408385031215610bde57610bdd610b2e565b5b6000610bec85828601610b7c565b9250506020610bfd85828601610bb2565b9150509250929050565b60008115159050919050565b610c1c81610c07565b82525050565b6000602082019050610c376000830184610c13565b92915050565b610c4681610b91565b82525050565b6000602082019050610c616000830184610c3d565b92915050565b600080600060608486031215610c8057610c7f610b2e565b5b6000610c8e86828701610b7c565b9350506020610c9f86828701610b7c565b9250506040610cb086828701610bb2565b9150509250925092565b600060ff82169050919050565b610cd081610cba565b82525050565b6000602082019050610ceb6000830184610cc7565b92915050565b600060208284031215610d0757610d06610b2e565b5b6000610d1584828501610b7c565b91505092915050565b60008060408385031215610d3557610d34610b2e565b5b6000610d4385828601610b7c565b9250506020610d5485828601610b7c565b9150509250929050565b7f4e487b7100000000000000000000000000000000000000000000000000000000600052602260045260246000fd5b60006002820490506001821680610da557607f821691505b602082108103610db857610db7610d5e565b5b50919050565b7f4e487b7100000000000000000000000000000000000000000000000000000000600052601160045260246000fd5b6000610df882610b91565b9150610e0383610b91565b9250828201905080821115610e1b57610e1a610dbe565b5b92915050565b7f45524332303a2064656372656173656420616c6c6f77616e63652062656c6f7760008201527f207a65726f000000000000000000000000000000000000000000000000000000602082015250565b6000610e7d602583610a87565b9150610e8882610e21565b604082019050919050565b60006020820190508181036000830152610eac81610e70565b9050919050565b7f45524332303a20617070726f76652066726f6d20746865207a65726f2061646460008201527f7265737300000000000000000000000000000000000000000000000000000000602082015250565b6000610f0f602483610a87565b9150610f1a82610eb3565b604082019050919050565b60006020820190508181036000830152610f3e81610f02565b9050919050565b7f45524332303a20617070726f766520746f20746865207a65726f20616464726560008201527f7373000000000000000000000000000000000000000000000000000000000000602082015250565b6000610fa1602283610a87565b9150610fac82610f45565b604082019050919050565b60006020820190508181036000830152610fd081610f94565b9050919050565b7f45524332303a20696e73756666696369656e7420616c6c6f77616e6365000000600082015250565b600061100d601d83610a87565b915061101882610fd7565b602082019050919050565b6000602082019050818103600083015261103c81611000565b9050919050565b7f45524332303a207472616e736665722066726f6d20746865207a65726f20616460008201527f6472657373000000000000000000000000000000000000000000000000000000602082015250565b600061109f602583610a87565b91506110aa82611043565b604082019050919050565b600060208201905081810360008301526110ce81611092565b9050919050565b7f45524332303a207472616e7366657220746f20746865207a65726f206164647260008201527f6573730000000000000000000000000000000000000000000000000000000000602082015250565b6000611131602383610a87565b915061113c826110d5565b604082019050919050565b6000602082019050818103600083015261116081611124565b9050919050565b7f45524332303a207472616e7366657220616d6f756e742065786365656473206260008201527f616c616e63650000000000000000000000000000000000000000000000000000602082015250565b60006111c3602683610a87565b91506111ce82611167565b604082019050919050565b600060208201905081810360008301526111f2816111b6565b905091905056fea2646970667358221220b313c2539f44c489e217acd96014834ea4f258b7c51fe215a616eff9d3b780a264736f6c6343000818003360806040523480156200001157600080fd5b5060405162001bac38038062001bac8339818101604052810190620000379190620002cc565b6040518060400160405280600681526020017f746f6b656e4200000000000000000000000000000000000000000000000000008152506040518060400160405280600681526020017f746f6b656e4200000000000000000000000000000000000000000000000000008152508160039081620000b491906200056e565b508060049081620000c691906200056e565b5050506200010533620000de6200010c60201b60201c565b600a620000ec9190620007e5565b83620000f9919062000836565b6200011560201b60201c565b506200096d565b60006006905090565b600073ffffffffffffffffffffffffffffffffffffffff168273ffffffffffffffffffffffffffffffffffffffff160362000187576040517f08c379a00000000000000000000000000000000000000000000000000000000081526004016200017e90620008e2565b60405180910390fd5b6200019b600083836200028260201b60201c565b8060026000828254620001af919062000904565b92505081905550806000808473ffffffffffffffffffffffffffffffffffffffff1673ffffffffffffffffffffffffffffffffffffffff168152602001908152602001600020600082825401925050819055508173ffffffffffffffffffffffffffffffffffffffff16600073ffffffffffffffffffffffffffffffffffffffff167fddf252ad1be2c89b69c2b068fc378daa952ba7f163c4a11628f55a4df523b3ef8360405162000262919062000950565b60405180910390a36200027e600083836200028760201b60201c565b5050565b505050565b505050565b600080fd5b6000819050919050565b620002a68162000291565b8114620002b257600080fd5b50565b600081519050620002c6816200029b565b92915050565b600060208284031215620002e557620002e46200028c565b5b6000620002f584828501620002b5565b91505092915050565b600081519050919050565b7f4e487b7100000000000000000000000000000000000000000000000000000000600052604160045260246000fd5b7f4e487b7100000000000000000000000000000000000000000000000000000000600052602260045260246000fd5b600060028204905060018216806200038057607f821691505b60208210810362000396576200039562000338565b5b50919050565b60008190508160005260206000209050919050565b60006020601f8301049050919050565b600082821b905092915050565b600060088302620004007fffffffffffffffffffffffffffffffffffffffffffffffffffffffffffffffff82620003c1565b6200040c8683620003c1565b95508019841693508086168417925050509392505050565b6000819050919050565b60006200044f62000449620004438462000291565b62000424565b62000291565b9050919050565b6000819050919050565b6200046b836200042e565b620004836200047a8262000456565b848454620003ce565b825550505050565b600090565b6200049a6200048b565b620004a781848462000460565b505050565b5b81811015620004cf57620004c360008262000490565b600181019050620004ad565b5050565b601f8211156200051e57620004e8816200039c565b620004f384620003b1565b8101602085101562000503578190505b6200051b6200051285620003b1565b830182620004ac565b50505b505050565b600082821c905092915050565b6000620005436000198460080262000523565b1980831691505092915050565b60006200055e838362000530565b9150826002028217905092915050565b6200057982620002fe565b67ffffffffffffffff81111562000595576200059462000309565b5b620005a1825462000367565b620005ae828285620004d3565b600060209050601f831160018114620005e65760008415620005d1578287015190505b620005dd858262000550565b8655506200064d565b601f198416620005f6866200039c565b60005b828110156200062057848901518255600182019150602085019450602081019050620005f9565b868310156200064057848901516200063c601f89168262000530565b8355505b6001600288020188555050505b505050505050565b7f4e487b7100000000000000000000000000000000000000000000000000000000600052601160045260246000fd5b60008160011c9050919050565b6000808291508390505b6001851115620006e357808604811115620006bb57620006ba62000655565b5b6001851615620006cb5780820291505b8081029050620006db8562000684565b94506200069b565b94509492505050565b600082620006fe5760019050620007d1565b816200070e5760009050620007d1565b8160018114620007275760028114620007325762000768565b6001915050620007d1565b60ff84111562000747576200074662000655565b5b8360020a91508482111562000761576200076062000655565b5b50620007d1565b5060208310610133831016604e8410600b8410161715620007a25782820a9050838111156200079c576200079b62000655565b5b620007d1565b620007b1848484600162000691565b92509050818404811115620007cb57620007ca62000655565b5b81810290505b9392505050565b600060ff82169050919050565b6000620007f28262000291565b9150620007ff83620007d8565b92506200082e7fffffffffffffffffffffffffffffffffffffffffffffffffffffffffffffffff8484620006ec565b905092915050565b6000620008438262000291565b9150620008508362000291565b9250828202620008608162000291565b915082820484148315176200087a576200087962000655565b5b5092915050565b600082825260208201905092915050565b7f45524332303a206d696e7420746f20746865207a65726f206164647265737300600082015250565b6000620008ca601f8362000881565b9150620008d78262000892565b602082019050919050565b60006020820190508181036000830152620008fd81620008bb565b9050919050565b6000620009118262000291565b91506200091e8362000291565b925082820190508082111562000939576200093862000655565b5b92915050565b6200094a8162000291565b82525050565b60006020820190506200096760008301846200093f565b92915050565b61122f806200097d6000396000f3fe608060405234801561001057600080fd5b50600436106100a95760003560e01c80633950935111610071578063395093511461016857806370a082311461019857806395d89b41146101c8578063a457c2d7146101e6578063a9059cbb14610216578063dd62ed3e14610246576100a9565b806306fdde03146100ae578063095ea7b3146100cc57806318160ddd146100fc57806323b872dd1461011a578063313ce5671461014a575b600080fd5b6100b6610276565b6040516100c39190610b0c565b60405180910390f35b6100e660048036038101906100e19190610bc7565b610308565b6040516100f39190610c22565b60405180910390f35b61010461032b565b6040516101119190610c4c565b60405180910390f35b610134600480360381019061012f9190610c67565b610335565b6040516101419190610c22565b60405180910390f35b610152610364565b60405161015f9190610cd6565b60405180910390f35b610182600480360381019061017d9190610bc7565b61036d565b60405161018f9190610c22565b60405180910390f35b6101b260048036038101906101ad9190610cf1565b6103a4565b6040516101bf9190610c4c565b60405180910390f35b6101d06103ec565b6040516101dd9190610b0c565b60405180910390f35b61020060048036038101906101fb9190610bc7565b61047e565b60405161020d9190610c22565b60405180910390f35b610230600480360381019061022b9190610bc7565b6104f5565b60405161023d9190610c22565b60405180910390f35b610260600480360381019061025b9190610d1e565b610518565b60405161026d9190610c4c565b60405180910390f35b60606003805461028590610d8d565b80601f01602080910402602001604051908101604052809291908181526020018280546102b190610d8d565b80156102fe5780601f106102d3576101008083540402835291602001916102fe565b820191906000526020600020905b8154815290600101906020018083116102e157829003601f168201915b5050505050905090565b60008061031361059f565b90506103208185856105a7565b600191505092915050565b6000600254905090565b60008061034061059f565b905061034d858285610770565b6103588585856107fc565b60019150509392505050565b60006006905090565b60008061037861059f565b905061039981858561038a8589610518565b6103949190610ded565b6105a7565b600191505092915050565b60008060008373ffffffffffffffffffffffffffffffffffffffff1673ffffffffffffffffffffffffffffffffffffffff168152602001908152602001600020549050919050565b6060600480546103fb90610d8d565b80601f016020809104026020016040519081016040528092919081815260200182805461042790610d8d565b80156104745780601f1061044957610100808354040283529160200191610474565b820191906000526020600020905b81548152906001019060200180831161045757829003601f168201915b5050505050905090565b60008061048961059f565b905060006104978286610518565b9050838110156104dc576040517f08c379a00000000000000000000000000000000000000000000000000000000081526004016104d390610e93565b60405180910390fd5b6104e982868684036105a7565b60019250505092915050565b60008061050061059f565b905061050d8185856107fc565b600191505092915050565b6000600160008473ffffffffffffffffffffffffffffffffffffffff1673ffffffffffffffffffffffffffffffffffffffff16815260200190815260200160002060008373ffffffffffffffffffffffffffffffffffffffff1673ffffffffffffffffffffffffffffffffffffffff16815260200190815260200160002054905092915050565b600033905090565b600073ffffffffffffffffffffffffffffffffffffffff168373ffffffffffffffffffffffffffffffffffffffff1603610616576040517f08c379a000000000000000000000000000000000000000000000000000000000815260040161060d90610f25565b60405180910390fd5b600073ffffffffffffffffffffffffffffffffffffffff168273ffffffffffffffffffffffffffffffffffffffff1603610685576040517f08c379a000000000000000000000000000000000000000000000000000000000815260040161067c90610fb7565b60405180910390fd5b80600160008573ffffffffffffffffffffffffffffffffffffffff1673ffffffffffffffffffffffffffffffffffffffff16815260200190815260200160002060008473ffffffffffffffffffffffffffffffffffffffff1673ffffffffffffffffffffffffffffffffffffffff168152602001908152602001600020819055508173ffffffffffffffffffffffffffffffffffffffff168373ffffffffffffffffffffffffffffffffffffffff167f8c5be1e5ebec7d5bd14f71427d1e84f3dd0314c0f7b2291e5b200ac8c7c3b925836040516107639190610c4c565b60405180910390a3505050565b600061077c8484610518565b90507fffffffffffffffffffffffffffffffffffffffffffffffffffffffffffffffff81146107f657818110156107e8576040517f08c379a00000000000000000000000000000000000000000000000000000000081526004016107df90611023565b60405180910390fd5b6107f584848484036105a7565b5b50505050565b600073ffffffffffffffffffffffffffffffffffffffff168373ffffffffffffffffffffffffffffffffffffffff160361086b576040517f08c379a0000000000000000000000000000000000000000000000000000000008152600401610862906110b5565b60405180910390fd5b600073ffffffffffffffffffffffffffffffffffffffff168273ffffffffffffffffffffffffffffffffffffffff16036108da576040517f08c379a00000000000000000000000000000000000000000000000000000000081526004016108d190611147565b60405180910390fd5b6108e5838383610a72565b60008060008573ffffffffffffffffffffffffffffffffffffffff1673ffffffffffffffffffffffffffffffffffffffff1681526020019081526020016000205490508181101561096b576040517f08c379a0000000000000000000000000000000000000000000000000000000008152600401610962906111d9565b60405180910390fd5b8181036000808673ffffffffffffffffffffffffffffffffffffffff1673ffffffffffffffffffffffffffffffffffffffff16815260200190815260200160002081905550816000808573ffffffffffffffffffffffffffffffffffffffff1673ffffffffffffffffffffffffffffffffffffffff168152602001908152602001600020600082825401925050819055508273ffffffffffffffffffffffffffffffffffffffff168473ffffffffffffffffffffffffffffffffffffffff167fddf252ad1be2c89b69c2b068fc378daa952ba7f163c4a11628f55a4df523b3ef84604051610a599190610c4c565b60405180910390a3610a6c848484610a77565b50505050565b505050565b505050565b600081519050919050565b600082825260208201905092915050565b60005b83811015610ab6578082015181840152602081019050610a9b565b60008484015250505050565b6000601f19601f8301169050919050565b6000610ade82610a7c565b610ae88185610a87565b9350610af8818560208601610a98565b610b0181610ac2565b840191505092915050565b60006020820190508181036000830152610b268184610ad3565b905092915050565b600080fd5b600073ffffffffffffffffffffffffffffffffffffffff82169050919050565b6000610b5e82610b33565b9050919050565b610b6e81610b53565b8114610b7957600080fd5b50565b600081359050610b8b81610b65565b92915050565b6000819050919050565b610ba481610b91565b8114610baf57600080fd5b50565b600081359050610bc181610b9b565b92915050565b60008060408385031215610bde57610bdd610b2e565b5b6000610bec85828601610b7c565b9250506020610bfd85828601610bb2565b9150509250929050565b60008115159050919050565b610c1c81610c07565b82525050565b6000602082019050610c376000830184610c13565b92915050565b610c4681610b91565b82525050565b6000602082019050610c616000830184610c3d565b92915050565b600080600060608486031215610c8057610c7f610b2e565b5b6000610c8e86828701610b7c565b9350506020610c9f86828701610b7c565b9250506040610cb086828701610bb2565b9150509250925092565b600060ff82169050919050565b610cd081610cba565b82525050565b6000602082019050610ceb6000830184610cc7565b92915050565b600060208284031215610d0757610d06610b2e565b5b6000610d1584828501610b7c565b91505092915050565b60008060408385031215610d3557610d34610b2e565b5b6000610d4385828601610b7c565b9250506020610d5485828601610b7c565b9150509250929050565b7f4e487b7100000000000000000000000000000000000000000000000000000000600052602260045260246000fd5b60006002820490506001821680610da557607f821691505b602082108103610db857610db7610d5e565b5b50919050565b7f4e487b7100000000000000000000000000000000000000000000000000000000600052601160045260246000fd5b6000610df882610b91565b9150610e0383610b91565b9250828201905080821115610e1b57610e1a610dbe565b5b92915050565b7f45524332303a2064656372656173656420616c6c6f77616e63652062656c6f7760008201527f207a65726f000000000000000000000000000000000000000000000000000000602082015250565b6000610e7d602583610a87565b9150610e8882610e21565b604082019050919050565b60006020820190508181036000830152610eac81610e70565b9050919050565b7f45524332303a20617070726f76652066726f6d20746865207a65726f2061646460008201527f7265737300000000000000000000000000000000000000000000000000000000602082015250565b6000610f0f602483610a87565b9150610f1a82610eb3565b604082019050919050565b60006020820190508181036000830152610f3e81610f02565b9050919050565b7f45524332303a20617070726f766520746f20746865207a65726f20616464726560008201527f7373000000000000000000000000000000000000000000000000000000000000602082015250565b6000610fa1602283610a87565b9150610fac82610f45565b604082019050919050565b60006020820190508181036000830152610fd081610f94565b9050919050565b7f45524332303a20696e73756666696369656e7420616c6c6f77616e6365000000600082015250565b600061100d601d83610a87565b915061101882610fd7565b602082019050919050565b6000602082019050818103600083015261103c81611000565b9050919050565b7f45524332303a207472616e736665722066726f6d20746865207a65726f20616460008201527f6472657373000000000000000000000000000000000000000000000000000000602082015250565b600061109f602583610a87565b91506110aa82611043565b604082019050919050565b600060208201905081810360008301526110ce81611092565b9050919050565b7f45524332303a207472616e7366657220746f20746865207a65726f206164647260008201527f6573730000000000000000000000000000000000000000000000000000000000602082015250565b6000611131602383610a87565b915061113c826110d5565b604082019050919050565b6000602082019050818103600083015261116081611124565b9050919050565b7f45524332303a207472616e7366657220616d6f756e742065786365656473206260008201527f616c616e63650000000000000000000000000000000000000000000000000000602082015250565b60006111c3602683610a87565b91506111ce82611167565b604082019050919050565b600060208201905081810360008301526111f2816111b6565b905091905056fea2646970667358221220f664a1adebc238e679cd66cfb12b5ce95dc683962bdb4a2fe9ded5dbb7423bf464736f6c63430008180033",
  "linkReferences": {},
  "deployedLinkReferences": {}
}