{
  "_format": "hh-sol-artifact-1",
  "contractName": "TokenStaking",
  "sourceName": "contracts/Staking.sol",
  "abi": [
    {
      "inputs": [],
      "stateMutability": "nonpayable",
      "type": "constructor"
    },
    {
      "anonymous": false,
      "inputs": [
        {
          "indexed": true,
          "internalType": "address",
          "name": "user",
          "type": "address"
        },
        {
          "indexed": false,
          "internalType": "uint256",
          "name": "poolId",
          "type": "uint256"
        },
        {
          "indexed": false,
          "internalType": "uint256",
          "name": "newBalance",
          "type": "uint256"
        }
      ],
      "name": "BalanceUpdated",
      "type": "event"
    },
    {
      "anonymous": false,
      "inputs": [
        {
          "indexed": true,
          "internalType": "address",
          "name": "user",
          "type": "address"
        },
        {
          "indexed": false,
          "internalType": "uint256",
          "name": "poolId",
          "type": "uint256"
        },
        {
          "indexed": false,
          "internalType": "uint256",
          "name": "newDepositTime",
          "type": "uint256"
        }
      ],
      "name": "DepositTimeUpdated",
      "type": "event"
    },
    {
      "anonymous": false,
      "inputs": [
        {
          "indexed": false,
          "internalType": "uint256",
          "name": "poolId",
          "type": "uint256"
        },
        {
          "indexed": false,
          "internalType": "uint256",
          "name": "newDuration",
          "type": "uint256"
        }
      ],
      "name": "DurationUpdated",
      "type": "event"
    },
    {
      "anonymous": false,
      "inputs": [
        {
          "indexed": true,
          "internalType": "address",
          "name": "previousOwner",
          "type": "address"
        },
        {
          "indexed": true,
          "internalType": "address",
          "name": "newOwner",
          "type": "address"
        }
      ],
      "name": "OwnershipTransferred",
      "type": "event"
    },
    {
      "anonymous": false,
      "inputs": [
        {
          "indexed": false,
          "internalType": "uint256",
          "name": "poolId",
          "type": "uint256"
        },
        {
          "indexed": false,
          "internalType": "address",
          "name": "stakingToken",
          "type": "address"
        },
        {
          "indexed": false,
          "internalType": "address",
          "name": "rewardToken",
          "type": "address"
        },
        {
          "indexed": false,
          "internalType": "uint256",
          "name": "duration",
          "type": "uint256"
        },
        {
          "indexed": false,
          "internalType": "uint256",
          "name": "rewardRate",
          "type": "uint256"
        },
        {
          "indexed": false,
          "internalType": "bool",
          "name": "active",
          "type": "bool"
        }
      ],
      "name": "PoolCreated",
      "type": "event"
    },
    {
      "anonymous": false,
      "inputs": [
        {
          "indexed": true,
          "internalType": "address",
          "name": "user",
          "type": "address"
        },
        {
          "indexed": false,
          "internalType": "uint256",
          "name": "profit",
          "type": "uint256"
        },
        {
          "indexed": false,
          "internalType": "uint256",
          "name": "poolId",
          "type": "uint256"
        }
      ],
      "name": "ProfitWithdrawn",
      "type": "event"
    },
    {
      "anonymous": false,
      "inputs": [
        {
          "indexed": false,
          "internalType": "uint256",
          "name": "poolId",
          "type": "uint256"
        },
        {
          "indexed": false,
          "internalType": "uint256",
          "name": "newRewardRate",
          "type": "uint256"
        }
      ],
      "name": "RewardRateUpdated",
      "type": "event"
    },
    {
      "anonymous": false,
      "inputs": [
        {
          "indexed": true,
          "internalType": "address",
          "name": "user",
          "type": "address"
        },
        {
          "indexed": false,
          "internalType": "uint256",
          "name": "amount",
          "type": "uint256"
        },
        {
          "indexed": false,
          "internalType": "uint256",
          "name": "poolId",
          "type": "uint256"
        }
      ],
      "name": "Staked",
      "type": "event"
    },
    {
      "anonymous": false,
      "inputs": [
        {
          "indexed": false,
          "internalType": "address",
          "name": "tokenAddress",
          "type": "address"
        },
        {
          "indexed": false,
          "internalType": "string",
          "name": "name",
          "type": "string"
        },
        {
          "indexed": false,
          "internalType": "string",
          "name": "symbol",
          "type": "string"
        },
        {
          "indexed": false,
          "internalType": "uint256",
          "name": "initialSupply",
          "type": "uint256"
        }
      ],
      "name": "TokenCreated",
      "type": "event"
    },
    {
      "anonymous": false,
      "inputs": [
        {
          "indexed": true,
          "internalType": "address",
          "name": "user",
          "type": "address"
        },
        {
          "indexed": false,
          "internalType": "uint256",
          "name": "amount",
          "type": "uint256"
        },
        {
          "indexed": false,
          "internalType": "uint256",
          "name": "reward",
          "type": "uint256"
        },
        {
          "indexed": false,
          "internalType": "uint256",
          "name": "poolId",
          "type": "uint256"
        }
      ],
      "name": "Withdrawn",
      "type": "event"
    },
    {
      "inputs": [],
      "name": "_poolIndex",
      "outputs": [
        {
          "internalType": "uint256",
          "name": "",
          "type": "uint256"
        }
      ],
      "stateMutability": "view",
      "type": "function"
    },
    {
      "inputs": [
        {
          "internalType": "address",
          "name": "referrer",
          "type": "address"
        }
      ],
      "name": "addReferral",
      "outputs": [],
      "stateMutability": "nonpayable",
      "type": "function"
    },
    {
      "inputs": [
        {
          "internalType": "uint256",
          "name": "",
          "type": "uint256"
        }
      ],
      "name": "allTokens",
      "outputs": [
        {
          "internalType": "contract MyCustomToken",
          "name": "",
          "type": "address"
        }
      ],
      "stateMutability": "view",
      "type": "function"
    },
    {
      "inputs": [
        {
          "internalType": "address",
          "name": "user",
          "type": "address"
        },
        {
          "internalType": "uint256",
          "name": "poolId",
          "type": "uint256"
        }
      ],
      "name": "calculateProfit",
      "outputs": [
        {
          "internalType": "uint256",
          "name": "",
          "type": "uint256"
        }
      ],
      "stateMutability": "view",
      "type": "function"
    },
    {
      "inputs": [
        {
          "internalType": "address",
          "name": "stakingToken",
          "type": "address"
        },
        {
          "internalType": "address",
          "name": "rewardToken",
          "type": "address"
        },
        {
          "internalType": "uint256",
          "name": "duration",
          "type": "uint256"
        },
        {
          "internalType": "uint256",
          "name": "rewardRate",
          "type": "uint256"
        }
      ],
      "name": "createPool",
      "outputs": [],
      "stateMutability": "nonpayable",
      "type": "function"
    },
    {
      "inputs": [
        {
          "internalType": "string",
          "name": "name",
          "type": "string"
        },
        {
          "internalType": "string",
          "name": "symbol",
          "type": "string"
        },
        {
          "internalType": "uint256",
          "name": "initialSupply",
          "type": "uint256"
        },
        {
          "internalType": "uint8",
          "name": "decimal",
          "type": "uint8"
        }
      ],
      "name": "createToken",
      "outputs": [
        {
          "internalType": "address",
          "name": "",
          "type": "address"
        }
      ],
      "stateMutability": "nonpayable",
      "type": "function"
    },
    {
      "inputs": [
        {
          "internalType": "uint256",
          "name": "_poolId",
          "type": "uint256"
        }
      ],
      "name": "deactivePool",
      "outputs": [],
      "stateMutability": "nonpayable",
      "type": "function"
    },
    {
      "inputs": [],
      "name": "getAllPoolIds",
      "outputs": [
        {
          "internalType": "uint256[]",
          "name": "",
          "type": "uint256[]"
        }
      ],
      "stateMutability": "view",
      "type": "function"
    },
    {
      "inputs": [],
      "name": "getAllTokens",
      "outputs": [
        {
          "internalType": "contract MyCustomToken[]",
          "name": "",
          "type": "address[]"
        }
      ],
      "stateMutability": "view",
      "type": "function"
    },
    {
      "inputs": [],
      "name": "owner",
      "outputs": [
        {
          "internalType": "address",
          "name": "",
          "type": "address"
        }
      ],
      "stateMutability": "view",
      "type": "function"
    },
    {
      "inputs": [
        {
          "internalType": "uint256",
          "name": "",
          "type": "uint256"
        }
      ],
      "name": "pools",
      "outputs": [
        {
          "internalType": "contract IERC20",
          "name": "stakingToken",
          "type": "address"
        },
        {
          "internalType": "contract IERC20",
          "name": "rewardToken",
          "type": "address"
        },
        {
          "internalType": "uint256",
          "name": "poolId",
          "type": "uint256"
        },
        {
          "internalType": "uint256",
          "name": "duration",
          "type": "uint256"
        },
        {
          "internalType": "uint256",
          "name": "rewardRate",
          "type": "uint256"
        },
        {
          "internalType": "uint256",
          "name": "minStakeAmount",
          "type": "uint256"
        },
        {
          "internalType": "bool",
          "name": "active",
          "type": "bool"
        }
      ],
      "stateMutability": "view",
      "type": "function"
    },
    {
      "inputs": [
        {
          "internalType": "address",
          "name": "",
          "type": "address"
        },
        {
          "internalType": "uint256",
          "name": "",
          "type": "uint256"
        }
      ],
      "name": "referrals",
      "outputs": [
        {
          "internalType": "address",
          "name": "",
          "type": "address"
        }
      ],
      "stateMutability": "view",
      "type": "function"
    },
    {
      "inputs": [
        {
          "internalType": "address",
          "name": "",
          "type": "address"
        }
      ],
      "name": "referredBy",
      "outputs": [
        {
          "internalType": "address",
          "name": "",
          "type": "address"
        }
      ],
      "stateMutability": "view",
      "type": "function"
    },
    {
      "inputs": [],
      "name": "renounceOwnership",
      "outputs": [],
      "stateMutability": "nonpayable",
      "type": "function"
    },
    {
      "inputs": [
        {
          "internalType": "uint256",
          "name": "_amount",
          "type": "uint256"
        },
        {
          "internalType": "uint8",
          "name": "_poolId",
          "type": "uint8"
        }
      ],
      "name": "setMinStakeAmount",
      "outputs": [],
      "stateMutability": "nonpayable",
      "type": "function"
    },
    {
      "inputs": [
        {
          "internalType": "address",
          "name": "_addr",
          "type": "address"
        },
        {
          "internalType": "uint256",
          "name": "_poolId",
          "type": "uint256"
        }
      ],
      "name": "showMyBalancesInPool",
      "outputs": [
        {
          "internalType": "uint256",
          "name": "",
          "type": "uint256"
        }
      ],
      "stateMutability": "view",
      "type": "function"
    },
    {
      "inputs": [
        {
          "internalType": "uint256",
          "name": "_amount",
          "type": "uint256"
        },
        {
          "internalType": "uint256",
          "name": "_poolId",
          "type": "uint256"
        }
      ],
      "name": "stake",
      "outputs": [],
      "stateMutability": "nonpayable",
      "type": "function"
    },
    {
      "inputs": [
        {
          "internalType": "address",
          "name": "newOwner",
          "type": "address"
        }
      ],
      "name": "transferOwnership",
      "outputs": [],
      "stateMutability": "nonpayable",
      "type": "function"
    },
    {
      "inputs": [
        {
          "internalType": "uint256",
          "name": "_amount",
          "type": "uint256"
        },
        {
          "internalType": "address",
          "name": "_tokenAddress",
          "type": "address"
        }
      ],
      "name": "transferTokenToContract",
      "outputs": [],
      "stateMutability": "nonpayable",
      "type": "function"
    },
    {
      "inputs": [
        {
          "internalType": "address",
          "name": "",
          "type": "address"
        }
      ],
      "name": "validForReferrer",
      "outputs": [
        {
          "internalType": "bool",
          "name": "",
          "type": "bool"
        }
      ],
      "stateMutability": "view",
      "type": "function"
    },
    {
      "inputs": [
        {
          "internalType": "uint256",
          "name": "_poolId",
          "type": "uint256"
        }
      ],
      "name": "withdrawAllAmount",
      "outputs": [],
      "stateMutability": "nonpayable",
      "type": "function"
    },
    {
      "inputs": [
        {
          "internalType": "uint256",
          "name": "_poolId",
          "type": "uint256"
        }
      ],
      "name": "withdrawProfit",
      "outputs": [],
      "stateMutability": "nonpayable",
      "type": "function"
    },
    {
      "inputs": [
        {
          "internalType": "uint256",
          "name": "amount",
          "type": "uint256"
        },
        {
          "internalType": "uint256",
          "name": "_poolId",
          "type": "uint256"
        }
      ],
      "name": "withdrawSpecificProfit",
      "outputs": [],
      "stateMutability": "nonpayable",
      "type": "function"
    }
  ],
  "bytecode": "0x60806040523480156200001157600080fd5b5062000032620000266200003f60201b60201c565b6200004760201b60201c565b600180819055506200010b565b600033905090565b60008060009054906101000a900473ffffffffffffffffffffffffffffffffffffffff169050816000806101000a81548173ffffffffffffffffffffffffffffffffffffffff021916908373ffffffffffffffffffffffffffffffffffffffff1602179055508173ffffffffffffffffffffffffffffffffffffffff168173ffffffffffffffffffffffffffffffffffffffff167f8be0079c531659141344cd1fd0a4f28419497f9722a3daafe3b4186f6b6457e060405160405180910390a35050565b615c63806200011b6000396000f3fe60806040523480156200001157600080fd5b50600436106200016c5760003560e01c806390274c6111620000d5578063e697b5d81162000087578063e697b5d8146200040d578063e8aca46a1462000443578063f19c3d5b1462000463578063f2fde38b1462000485578063f39d67be14620004a5578063fcf25ae714620004db576200016c565b806390274c6114620002ef578063a90f8e9a146200030f578063ac4afa381462000345578063ae61f6d21462000381578063b64acddd14620003b7578063d82a2bea14620003ed576200016c565b8063634282af116200012f578063634282af146200022b578063715018a6146200026157806373c81131146200026d5780637b0472f0146200028d578063884db06314620002ad5780638da5cb5b14620002cd576200016c565b80630735e65b14620001715780630bde2efa1462000193578063269f6fa414620001b35780632a5c792a14620001d35780633edaa34b14620001f5575b600080fd5b6200017b620004fb565b6040516200018a919062002854565b60405180910390f35b620001b16004803603810190620001ab91906200291b565b62000501565b005b620001d16004803603810190620001cb919062002962565b620006ad565b005b620001dd62000752565b604051620001ec919062002abc565b60405180910390f35b6200021360048036038101906200020d919062002ae0565b620007e2565b60405162000222919062002854565b60405180910390f35b62000249600480360381019062000243919062002962565b6200089c565b60405162000258919062002b38565b60405180910390f35b6200026b620008dc565b005b6200028b600480360381019062000285919062002b93565b620008f4565b005b620002ab6004803603810190620002a5919062002bda565b62000938565b005b620002cb6004803603810190620002c5919062002c21565b62000f08565b005b620002d762001074565b604051620002e6919062002ca4565b60405180910390f35b6200030d600480360381019062000307919062002962565b6200109d565b005b6200032d600480360381019062000327919062002cc1565b620014b8565b6040516200033c919062002ca4565b60405180910390f35b6200036360048036038101906200035d919062002962565b620014eb565b60405162000378979695949392919062002d35565b60405180910390f35b6200039f600480360381019062000399919062002ae0565b6200158b565b604051620003ae919062002854565b60405180910390f35b620003d56004803603810190620003cf919062002f14565b620017eb565b604051620003e4919062002ca4565b60405180910390f35b6200040b600480360381019062000405919062002962565b620018ea565b005b6200042b600480360381019062000425919062002ae0565b62001b37565b6040516200043a919062002ca4565b60405180910390f35b6200046160048036038101906200045b919062002cc1565b62001b86565b005b6200046d62001e78565b6040516200047c919062003092565b60405180910390f35b620004a360048036038101906200049d919062002cc1565b62001f1a565b005b620004c36004803603810190620004bd919062002cc1565b62001fa4565b604051620004d29190620030b6565b60405180910390f35b620004f96004803603810190620004f3919062002bda565b62001fc4565b005b60025481565b6200050b62002205565b6000821162000551576040517f08c379a0000000000000000000000000000000000000000000000000000000008152600401620005489062003134565b60405180910390fd5b600081905060008173ffffffffffffffffffffffffffffffffffffffff1663dd62ed3e33306040518363ffffffff1660e01b81526004016200059592919062003156565b602060405180830381865afa158015620005b3573d6000803e3d6000fd5b505050506040513d601f19601f82011682018060405250810190620005d991906200319a565b90508381101562000621576040517f08c379a000000000000000000000000000000000000000000000000000000000815260040162000618906200321c565b60405180910390fd5b8173ffffffffffffffffffffffffffffffffffffffff166323b872dd3330876040518463ffffffff1660e01b815260040162000660939291906200323e565b6020604051808303816000875af115801562000680573d6000803e3d6000fd5b505050506040513d601f19601f82011682018060405250810190620006a69190620032ac565b5050505050565b620006b762002205565b600081118015620006cc575060048054905081105b6200070e576040517f08c379a000000000000000000000000000000000000000000000000000000000815260040162000705906200332e565b60405180910390fd5b60006004828154811062000727576200072662003350565b5b90600052602060002090600a020160060160006101000a81548160ff02191690831515021790555050565b60606003805480602002602001604051908101604052809291908181526020018280548015620007d857602002820191906000526020600020905b8160009054906101000a900473ffffffffffffffffffffffffffffffffffffffff1673ffffffffffffffffffffffffffffffffffffffff16815260200190600101908083116200078d575b5050505050905090565b600060048054905082106200082e576040517f08c379a00000000000000000000000000000000000000000000000000000000081526004016200082590620033cf565b60405180910390fd5b6004828154811062000845576200084462003350565b5b90600052602060002090600a020160070160008473ffffffffffffffffffffffffffffffffffffffff1673ffffffffffffffffffffffffffffffffffffffff16815260200190815260200160002054905092915050565b60038181548110620008ad57600080fd5b906000526020600020016000915054906101000a900473ffffffffffffffffffffffffffffffffffffffff1681565b620008e662002205565b620008f260006200228a565b565b620008fe62002205565b600060048260ff16815481106200091a576200091962003350565b5b90600052602060002090600a02019050828160050181905550505050565b620009426200234e565b60048054905081106200098c576040517f08c379a00000000000000000000000000000000000000000000000000000000081526004016200098390620033cf565b60405180910390fd5b60008211620009d2576040517f08c379a0000000000000000000000000000000000000000000000000000000008152600401620009c99062003441565b60405180910390fd5b600060048281548110620009eb57620009ea62003350565b5b90600052602060002090600a02019050600115158160060160009054906101000a900460ff1615151462000a56576040517f08c379a000000000000000000000000000000000000000000000000000000000815260040162000a4d90620034b3565b60405180910390fd5b806005015483101562000aa0576040517f08c379a000000000000000000000000000000000000000000000000000000000815260040162000a979062003525565b60405180910390fd5b828160000160009054906101000a900473ffffffffffffffffffffffffffffffffffffffff1673ffffffffffffffffffffffffffffffffffffffff166370a08231336040518263ffffffff1660e01b815260040162000b00919062002ca4565b602060405180830381865afa15801562000b1e573d6000803e3d6000fd5b505050506040513d601f19601f8201168201806040525081019062000b4491906200319a565b101562000b88576040517f08c379a000000000000000000000000000000000000000000000000000000000815260040162000b7f9062003597565b60405180910390fd5b828160000160009054906101000a900473ffffffffffffffffffffffffffffffffffffffff1673ffffffffffffffffffffffffffffffffffffffff1663dd62ed3e33306040518363ffffffff1660e01b815260040162000bea92919062003156565b602060405180830381865afa15801562000c08573d6000803e3d6000fd5b505050506040513d601f19601f8201168201806040525081019062000c2e91906200319a565b101562000c72576040517f08c379a000000000000000000000000000000000000000000000000000000000815260040162000c699062003609565b60405180910390fd5b6001600560003373ffffffffffffffffffffffffffffffffffffffff1673ffffffffffffffffffffffffffffffffffffffff16815260200190815260200160002060006101000a81548160ff0219169083151502179055508060000160009054906101000a900473ffffffffffffffffffffffffffffffffffffffff1673ffffffffffffffffffffffffffffffffffffffff166323b872dd3330866040518463ffffffff1660e01b815260040162000d2d939291906200323e565b6020604051808303816000875af115801562000d4d573d6000803e3d6000fd5b505050506040513d601f19601f8201168201806040525081019062000d739190620032ac565b50828160070160003373ffffffffffffffffffffffffffffffffffffffff1673ffffffffffffffffffffffffffffffffffffffff168152602001908152602001600020600082825462000dc791906200365a565b92505081905550428160080160003373ffffffffffffffffffffffffffffffffffffffff1673ffffffffffffffffffffffffffffffffffffffff168152602001908152602001600020819055503373ffffffffffffffffffffffffffffffffffffffff167f1449c6dd7851abc30abf37f57715f492010519147cc2652fbc38202c18a6ee90848460405162000e5e92919062003695565b60405180910390a23373ffffffffffffffffffffffffffffffffffffffff167f5e00297b9c4f8fef460c4d7123316eeeb08a64a0930d1d9cae0b61b7f663b254838360070160003373ffffffffffffffffffffffffffffffffffffffff1673ffffffffffffffffffffffffffffffffffffffff1681526020019081526020016000205460405162000ef192919062003695565b60405180910390a25062000f04620023a0565b5050565b62000f1262002205565b600060046001816001815401808255809150500390600052602060002090600a02019050848160000160006101000a81548173ffffffffffffffffffffffffffffffffffffffff021916908373ffffffffffffffffffffffffffffffffffffffff160217905550838160010160006101000a81548173ffffffffffffffffffffffffffffffffffffffff021916908373ffffffffffffffffffffffffffffffffffffffff16021790555082816003018190555081816004018190555060018160060160006101000a81548160ff0219169083151502179055506002548160020181905550600260008154809291906200100b90620036c2565b9190505550600060016004805490506200102691906200370f565b90507f6e966cee15ffefaba0d89529513354d4eccef0493fb7c59d8b8404e5d280b3d78187878787600160405162001064969594939291906200374a565b60405180910390a1505050505050565b60008060009054906101000a900473ffffffffffffffffffffffffffffffffffffffff16905090565b620010a76200234e565b6004805490508110620010f1576040517f08c379a0000000000000000000000000000000000000000000000000000000008152600401620010e890620033cf565b60405180910390fd5b6000600482815481106200110a576200110962003350565b5b90600052602060002090600a0201905060008160070160003373ffffffffffffffffffffffffffffffffffffffff1673ffffffffffffffffffffffffffffffffffffffff16815260200190815260200160002054905060008111620011a6576040517f08c379a00000000000000000000000000000000000000000000000000000000081526004016200119d9062003807565b60405180910390fd5b60008260080160003373ffffffffffffffffffffffffffffffffffffffff1673ffffffffffffffffffffffffffffffffffffffff1681526020019081526020016000205442620011f791906200370f565b905060008360030154821062001216576200121333866200158b565b90505b62001223813387620023a9565b60008460070160003373ffffffffffffffffffffffffffffffffffffffff1673ffffffffffffffffffffffffffffffffffffffff1681526020019081526020016000208190555060008460080160003373ffffffffffffffffffffffffffffffffffffffff1673ffffffffffffffffffffffffffffffffffffffff168152602001908152602001600020819055508360000160009054906101000a900473ffffffffffffffffffffffffffffffffffffffff1673ffffffffffffffffffffffffffffffffffffffff1663a9059cbb33856040518363ffffffff1660e01b81526004016200131292919062003829565b6020604051808303816000875af115801562001332573d6000803e3d6000fd5b505050506040513d601f19601f82011682018060405250810190620013589190620032ac565b508360010160009054906101000a900473ffffffffffffffffffffffffffffffffffffffff1673ffffffffffffffffffffffffffffffffffffffff1663a9059cbb33836040518363ffffffff1660e01b8152600401620013ba92919062003829565b6020604051808303816000875af1158015620013da573d6000803e3d6000fd5b505050506040513d601f19601f82011682018060405250810190620014009190620032ac565b503373ffffffffffffffffffffffffffffffffffffffff167f092aa588fea04f5f76814b8a23143fd3dcd203961584367074e84589e12425ad82876040516200144b92919062003695565b60405180910390a23373ffffffffffffffffffffffffffffffffffffffff167f75e161b3e824b114fc1a33274bd7091918dd4e639cede50b78b15a4eea956a218483886040516200149f9392919062003856565b60405180910390a250505050620014b5620023a0565b50565b60066020528060005260406000206000915054906101000a900473ffffffffffffffffffffffffffffffffffffffff1681565b60048181548110620014fc57600080fd5b90600052602060002090600a02016000915090508060000160009054906101000a900473ffffffffffffffffffffffffffffffffffffffff16908060010160009054906101000a900473ffffffffffffffffffffffffffffffffffffffff16908060020154908060030154908060040154908060050154908060060160009054906101000a900460ff16905087565b60006004805490508210620015d7576040517f08c379a0000000000000000000000000000000000000000000000000000000008152600401620015ce90620033cf565b60405180910390fd5b600060048381548110620015f057620015ef62003350565b5b90600052602060002090600a0201905060008160070160008673ffffffffffffffffffffffffffffffffffffffff1673ffffffffffffffffffffffffffffffffffffffff168152602001908152602001600020549050600081036200165b57600092505050620017e5565b6000620016eb8360080160008873ffffffffffffffffffffffffffffffffffffffff1673ffffffffffffffffffffffffffffffffffffffff168152602001908152602001600020548460090160008973ffffffffffffffffffffffffffffffffffffffff1673ffffffffffffffffffffffffffffffffffffffff1681526020019081526020016000205462002807565b90506000429050600084600301548560080160008a73ffffffffffffffffffffffffffffffffffffffff1673ffffffffffffffffffffffffffffffffffffffff168152602001908152602001600020546200174791906200365a565b905080821062001755578091505b600083836200176591906200370f565b905060006127108760030154670de0b6b3a764000089600401546200178b919062003893565b6200179791906200390d565b620017a391906200390d565b90506000670de0b6b3a7640000878385620017bf919062003893565b620017cb919062003893565b620017d791906200390d565b905080985050505050505050505b92915050565b6000620017f762002205565b600085858585336040516200180c906200282b565b6200181c959493929190620039ce565b604051809103906000f08015801562001839573d6000803e3d6000fd5b5090506003819080600181540180825580915050600190039060005260206000200160009091909190916101000a81548173ffffffffffffffffffffffffffffffffffffffff021916908373ffffffffffffffffffffffffffffffffffffffff1602179055507f75d1eb2d61d7e210835bc16e78ac4d0e4f905c108a81852a6b68c4d46b4f40f381878787604051620018d6949392919062003a39565b60405180910390a180915050949350505050565b620018f46200234e565b60048054905081106200193e576040517f08c379a00000000000000000000000000000000000000000000000000000000081526004016200193590620033cf565b60405180910390fd5b60006200194c33836200158b565b90506000811162001994576040517f08c379a00000000000000000000000000000000000000000000000000000000081526004016200198b9062003ae4565b60405180910390fd5b620019a1813384620023a9565b4260048381548110620019b957620019b862003350565b5b90600052602060002090600a020160090160003373ffffffffffffffffffffffffffffffffffffffff1673ffffffffffffffffffffffffffffffffffffffff168152602001908152602001600020819055506004828154811062001a225762001a2162003350565b5b90600052602060002090600a020160010160009054906101000a900473ffffffffffffffffffffffffffffffffffffffff1673ffffffffffffffffffffffffffffffffffffffff1663a9059cbb33836040518363ffffffff1660e01b815260040162001a9092919062003829565b6020604051808303816000875af115801562001ab0573d6000803e3d6000fd5b505050506040513d601f19601f8201168201806040525081019062001ad69190620032ac565b503373ffffffffffffffffffffffffffffffffffffffff167f092aa588fea04f5f76814b8a23143fd3dcd203961584367074e84589e12425ad828460405162001b2192919062003695565b60405180910390a25062001b34620023a0565b50565b6007602052816000526040600020818154811062001b5457600080fd5b906000526020600020016000915091509054906101000a900473ffffffffffffffffffffffffffffffffffffffff1681565b3373ffffffffffffffffffffffffffffffffffffffff168173ffffffffffffffffffffffffffffffffffffffff160362001bf7576040517f08c379a000000000000000000000000000000000000000000000000000000000815260040162001bee9062003b56565b60405180910390fd5b600073ffffffffffffffffffffffffffffffffffffffff16600660003373ffffffffffffffffffffffffffffffffffffffff1673ffffffffffffffffffffffffffffffffffffffff16815260200190815260200160002060009054906101000a900473ffffffffffffffffffffffffffffffffffffffff1673ffffffffffffffffffffffffffffffffffffffff161462001cc8576040517f08c379a000000000000000000000000000000000000000000000000000000000815260040162001cbf9062003bc8565b60405180910390fd5b600560008273ffffffffffffffffffffffffffffffffffffffff1673ffffffffffffffffffffffffffffffffffffffff16815260200190815260200160002060009054906101000a900460ff1662001d57576040517f08c379a000000000000000000000000000000000000000000000000000000000815260040162001d4e9062003c3a565b60405180910390fd5b80600660003373ffffffffffffffffffffffffffffffffffffffff1673ffffffffffffffffffffffffffffffffffffffff16815260200190815260200160002060006101000a81548173ffffffffffffffffffffffffffffffffffffffff021916908373ffffffffffffffffffffffffffffffffffffffff160217905550600760008273ffffffffffffffffffffffffffffffffffffffff1673ffffffffffffffffffffffffffffffffffffffff168152602001908152602001600020339080600181540180825580915050600190039060005260206000200160009091909190916101000a81548173ffffffffffffffffffffffffffffffffffffffff021916908373ffffffffffffffffffffffffffffffffffffffff16021790555050565b6060600060048054905067ffffffffffffffff81111562001e9e5762001e9d62002dcd565b5b60405190808252806020026020018201604052801562001ecd5781602001602082028036833780820191505090505b50905060005b60048054905081101562001f12578082828151811062001ef85762001ef762003350565b5b602002602001018181525050808060010191505062001ed3565b508091505090565b62001f2462002205565b600073ffffffffffffffffffffffffffffffffffffffff168173ffffffffffffffffffffffffffffffffffffffff160362001f96576040517f08c379a000000000000000000000000000000000000000000000000000000000815260040162001f8d9062003cd2565b60405180910390fd5b62001fa1816200228a565b50565b60056020528060005260406000206000915054906101000a900460ff1681565b62001fce6200234e565b600480549050811062002018576040517f08c379a00000000000000000000000000000000000000000000000000000000081526004016200200f90620033cf565b60405180910390fd5b60006200202633836200158b565b9050828110156200206e576040517f08c379a0000000000000000000000000000000000000000000000000000000008152600401620020659062003d44565b60405180910390fd5b426004838154811062002086576200208562003350565b5b90600052602060002090600a020160090160003373ffffffffffffffffffffffffffffffffffffffff1673ffffffffffffffffffffffffffffffffffffffff1681526020019081526020016000208190555060048281548110620020ef57620020ee62003350565b5b90600052602060002090600a020160010160009054906101000a900473ffffffffffffffffffffffffffffffffffffffff1673ffffffffffffffffffffffffffffffffffffffff1663a9059cbb33856040518363ffffffff1660e01b81526004016200215d92919062003829565b6020604051808303816000875af11580156200217d573d6000803e3d6000fd5b505050506040513d601f19601f82011682018060405250810190620021a39190620032ac565b503373ffffffffffffffffffffffffffffffffffffffff167f092aa588fea04f5f76814b8a23143fd3dcd203961584367074e84589e12425ad8484604051620021ee92919062003695565b60405180910390a25062002201620023a0565b5050565b6200220f62002823565b73ffffffffffffffffffffffffffffffffffffffff166200222f62001074565b73ffffffffffffffffffffffffffffffffffffffff161462002288576040517f08c379a00000000000000000000000000000000000000000000000000000000081526004016200227f9062003db6565b60405180910390fd5b565b60008060009054906101000a900473ffffffffffffffffffffffffffffffffffffffff169050816000806101000a81548173ffffffffffffffffffffffffffffffffffffffff021916908373ffffffffffffffffffffffffffffffffffffffff1602179055508173ffffffffffffffffffffffffffffffffffffffff168173ffffffffffffffffffffffffffffffffffffffff167f8be0079c531659141344cd1fd0a4f28419497f9722a3daafe3b4186f6b6457e060405160405180910390a35050565b60026001540362002396576040517f08c379a00000000000000000000000000000000000000000000000000000000081526004016200238d9062003e28565b60405180910390fd5b6002600181905550565b60018081905550565b60006064600585620023bc919062003893565b620023c891906200390d565b905060006064600386620023dd919062003893565b620023e991906200390d565b905060006064600187620023fe919062003893565b6200240a91906200390d565b90506000600660008773ffffffffffffffffffffffffffffffffffffffff1673ffffffffffffffffffffffffffffffffffffffff16815260200190815260200160002060009054906101000a900473ffffffffffffffffffffffffffffffffffffffff1690506000600660008373ffffffffffffffffffffffffffffffffffffffff1673ffffffffffffffffffffffffffffffffffffffff16815260200190815260200160002060009054906101000a900473ffffffffffffffffffffffffffffffffffffffff1690506000600660008373ffffffffffffffffffffffffffffffffffffffff1673ffffffffffffffffffffffffffffffffffffffff16815260200190815260200160002060009054906101000a900473ffffffffffffffffffffffffffffffffffffffff16905060006004888154811062002551576200255062003350565b5b90600052602060002090600a02019050600073ffffffffffffffffffffffffffffffffffffffff168473ffffffffffffffffffffffffffffffffffffffff16146200263f578060010160009054906101000a900473ffffffffffffffffffffffffffffffffffffffff1673ffffffffffffffffffffffffffffffffffffffff1663a9059cbb85896040518363ffffffff1660e01b8152600401620025f792919062003829565b6020604051808303816000875af115801562002617573d6000803e3d6000fd5b505050506040513d601f19601f820116820180604052508101906200263d9190620032ac565b505b600073ffffffffffffffffffffffffffffffffffffffff168373ffffffffffffffffffffffffffffffffffffffff16146200271d578060010160009054906101000a900473ffffffffffffffffffffffffffffffffffffffff1673ffffffffffffffffffffffffffffffffffffffff1663a9059cbb84886040518363ffffffff1660e01b8152600401620026d592919062003829565b6020604051808303816000875af1158015620026f5573d6000803e3d6000fd5b505050506040513d601f19601f820116820180604052508101906200271b9190620032ac565b505b600073ffffffffffffffffffffffffffffffffffffffff168273ffffffffffffffffffffffffffffffffffffffff1614620027fb578060010160009054906101000a900473ffffffffffffffffffffffffffffffffffffffff1673ffffffffffffffffffffffffffffffffffffffff1663a9059cbb83876040518363ffffffff1660e01b8152600401620027b392919062003829565b6020604051808303816000875af1158015620027d3573d6000803e3d6000fd5b505050506040513d601f19601f82011682018060405250810190620027f99190620032ac565b505b50505050505050505050565b6000818310156200281957816200281b565b825b905092915050565b600033905090565b611de38062003e4b83390190565b6000819050919050565b6200284e8162002839565b82525050565b60006020820190506200286b600083018462002843565b92915050565b6000604051905090565b600080fd5b600080fd5b620028908162002839565b81146200289c57600080fd5b50565b600081359050620028b08162002885565b92915050565b600073ffffffffffffffffffffffffffffffffffffffff82169050919050565b6000620028e382620028b6565b9050919050565b620028f581620028d6565b81146200290157600080fd5b50565b6000813590506200291581620028ea565b92915050565b600080604083850312156200293557620029346200287b565b5b600062002945858286016200289f565b9250506020620029588582860162002904565b9150509250929050565b6000602082840312156200297b576200297a6200287b565b5b60006200298b848285016200289f565b91505092915050565b600081519050919050565b600082825260208201905092915050565b6000819050602082019050919050565b6000819050919050565b6000620029eb620029e5620029df84620028b6565b620029c0565b620028b6565b9050919050565b6000620029ff82620029ca565b9050919050565b600062002a1382620029f2565b9050919050565b62002a258162002a06565b82525050565b600062002a39838362002a1a565b60208301905092915050565b6000602082019050919050565b600062002a5f8262002994565b62002a6b81856200299f565b935062002a7883620029b0565b8060005b8381101562002aaf57815162002a93888262002a2b565b975062002aa08362002a45565b92505060018101905062002a7c565b5085935050505092915050565b6000602082019050818103600083015262002ad8818462002a52565b905092915050565b6000806040838503121562002afa5762002af96200287b565b5b600062002b0a8582860162002904565b925050602062002b1d858286016200289f565b9150509250929050565b62002b328162002a06565b82525050565b600060208201905062002b4f600083018462002b27565b92915050565b600060ff82169050919050565b62002b6d8162002b55565b811462002b7957600080fd5b50565b60008135905062002b8d8162002b62565b92915050565b6000806040838503121562002bad5762002bac6200287b565b5b600062002bbd858286016200289f565b925050602062002bd08582860162002b7c565b9150509250929050565b6000806040838503121562002bf45762002bf36200287b565b5b600062002c04858286016200289f565b925050602062002c17858286016200289f565b9150509250929050565b6000806000806080858703121562002c3e5762002c3d6200287b565b5b600062002c4e8782880162002904565b945050602062002c618782880162002904565b935050604062002c74878288016200289f565b925050606062002c87878288016200289f565b91505092959194509250565b62002c9e81620028d6565b82525050565b600060208201905062002cbb600083018462002c93565b92915050565b60006020828403121562002cda5762002cd96200287b565b5b600062002cea8482850162002904565b91505092915050565b600062002d0082620029f2565b9050919050565b62002d128162002cf3565b82525050565b60008115159050919050565b62002d2f8162002d18565b82525050565b600060e08201905062002d4c600083018a62002d07565b62002d5b602083018962002d07565b62002d6a604083018862002843565b62002d79606083018762002843565b62002d88608083018662002843565b62002d9760a083018562002843565b62002da660c083018462002d24565b98975050505050505050565b600080fd5b600080fd5b6000601f19601f8301169050919050565b7f4e487b7100000000000000000000000000000000000000000000000000000000600052604160045260246000fd5b62002e078262002dbc565b810181811067ffffffffffffffff8211171562002e295762002e2862002dcd565b5b80604052505050565b600062002e3e62002871565b905062002e4c828262002dfc565b919050565b600067ffffffffffffffff82111562002e6f5762002e6e62002dcd565b5b62002e7a8262002dbc565b9050602081019050919050565b82818337600083830152505050565b600062002ead62002ea78462002e51565b62002e32565b90508281526020810184848401111562002ecc5762002ecb62002db7565b5b62002ed984828562002e87565b509392505050565b600082601f83011262002ef95762002ef862002db2565b5b813562002f0b84826020860162002e96565b91505092915050565b6000806000806080858703121562002f315762002f306200287b565b5b600085013567ffffffffffffffff81111562002f525762002f5162002880565b5b62002f608782880162002ee1565b945050602085013567ffffffffffffffff81111562002f845762002f8362002880565b5b62002f928782880162002ee1565b935050604062002fa5878288016200289f565b925050606062002fb88782880162002b7c565b91505092959194509250565b600081519050919050565b600082825260208201905092915050565b6000819050602082019050919050565b62002ffb8162002839565b82525050565b60006200300f838362002ff0565b60208301905092915050565b6000602082019050919050565b6000620030358262002fc4565b62003041818562002fcf565b93506200304e8362002fe0565b8060005b838110156200308557815162003069888262003001565b975062003076836200301b565b92505060018101905062003052565b5085935050505092915050565b60006020820190508181036000830152620030ae818462003028565b905092915050565b6000602082019050620030cd600083018462002d24565b92915050565b600082825260208201905092915050565b7f496e76616c696420416d6f756e74000000000000000000000000000000000000600082015250565b60006200311c600e83620030d3565b91506200312982620030e4565b602082019050919050565b600060208201905081810360008301526200314f816200310d565b9050919050565b60006040820190506200316d600083018562002c93565b6200317c602083018462002c93565b9392505050565b600081519050620031948162002885565b92915050565b600060208284031215620031b357620031b26200287b565b5b6000620031c38482850162003183565b91505092915050565b7f436865636b2074686520746f6b656e20616c6c6f77616e636500000000000000600082015250565b600062003204601983620030d3565b91506200321182620031cc565b602082019050919050565b600060208201905081810360008301526200323781620031f5565b9050919050565b600060608201905062003255600083018662002c93565b62003264602083018562002c93565b62003273604083018462002843565b949350505050565b620032868162002d18565b81146200329257600080fd5b50565b600081519050620032a6816200327b565b92915050565b600060208284031215620032c557620032c46200287b565b5b6000620032d58482850162003295565b91505092915050565b7f496e76616c696420506f6f6c2049640000000000000000000000000000000000600082015250565b600062003316600f83620030d3565b91506200332382620032de565b602082019050919050565b60006020820190508181036000830152620033498162003307565b9050919050565b7f4e487b7100000000000000000000000000000000000000000000000000000000600052603260045260246000fd5b7f496e76616c696420706f6f6c2069640000000000000000000000000000000000600082015250565b6000620033b7600f83620030d3565b9150620033c4826200337f565b602082019050919050565b60006020820190508181036000830152620033ea81620033a8565b9050919050565b7f416d6f756e74206d7573742062652067726561746572207468616e2030000000600082015250565b600062003429601d83620030d3565b91506200343682620033f1565b602082019050919050565b600060208201905081810360008301526200345c816200341a565b9050919050565b7f5468697320706f6f6c2069732063757272656e746c792064656163746976652e600082015250565b60006200349b602083620030d3565b9150620034a88262003463565b602082019050919050565b60006020820190508181036000830152620034ce816200348c565b9050919050565b7f4d696e696d756d207374616b6520416d6f756e7420726571756972652e000000600082015250565b60006200350d601d83620030d3565b91506200351a82620034d5565b602082019050919050565b600060208201905081810360008301526200354081620034fe565b9050919050565b7f496e73756666696369656e742062616c616e6365000000000000000000000000600082015250565b60006200357f601483620030d3565b91506200358c8262003547565b602082019050919050565b60006020820190508181036000830152620035b28162003570565b9050919050565b7f496e73756666696369656e7420616c6c6f77616e636500000000000000000000600082015250565b6000620035f1601683620030d3565b9150620035fe82620035b9565b602082019050919050565b600060208201905081810360008301526200362481620035e2565b9050919050565b7f4e487b7100000000000000000000000000000000000000000000000000000000600052601160045260246000fd5b6000620036678262002839565b9150620036748362002839565b92508282019050808211156200368f576200368e6200362b565b5b92915050565b6000604082019050620036ac600083018562002843565b620036bb602083018462002843565b9392505050565b6000620036cf8262002839565b91507fffffffffffffffffffffffffffffffffffffffffffffffffffffffffffffffff82036200370457620037036200362b565b5b600182019050919050565b60006200371c8262002839565b9150620037298362002839565b92508282039050818111156200374457620037436200362b565b5b92915050565b600060c08201905062003761600083018962002843565b62003770602083018862002c93565b6200377f604083018762002c93565b6200378e606083018662002843565b6200379d608083018562002843565b620037ac60a083018462002d24565b979650505050505050565b7f4e6f2062616c616e636520746f20776974686472617700000000000000000000600082015250565b6000620037ef601683620030d3565b9150620037fc82620037b7565b602082019050919050565b600060208201905081810360008301526200382281620037e0565b9050919050565b600060408201905062003840600083018562002c93565b6200384f602083018462002843565b9392505050565b60006060820190506200386d600083018662002843565b6200387c602083018562002843565b6200388b604083018462002843565b949350505050565b6000620038a08262002839565b9150620038ad8362002839565b9250828202620038bd8162002839565b91508282048414831517620038d757620038d66200362b565b5b5092915050565b7f4e487b7100000000000000000000000000000000000000000000000000000000600052601260045260246000fd5b60006200391a8262002839565b9150620039278362002839565b9250826200393a5762003939620038de565b5b828204905092915050565b600081519050919050565b60005b838110156200397057808201518184015260208101905062003953565b60008484015250505050565b6000620039898262003945565b620039958185620030d3565b9350620039a781856020860162003950565b620039b28162002dbc565b840191505092915050565b620039c88162002b55565b82525050565b600060a0820190508181036000830152620039ea81886200397c565b9050818103602083015262003a0081876200397c565b905062003a11604083018662002843565b62003a206060830185620039bd565b62003a2f608083018462002c93565b9695505050505050565b600060808201905062003a50600083018762002c93565b818103602083015262003a6481866200397c565b9050818103604083015262003a7a81856200397c565b905062003a8b606083018462002843565b95945050505050565b7f4e6f2070726f66697420617661696c61626c6500000000000000000000000000600082015250565b600062003acc601383620030d3565b915062003ad98262003a94565b602082019050919050565b6000602082019050818103600083015262003aff8162003abd565b9050919050565b7f596f752063616e6e6f7420726566657220796f757273656c6600000000000000600082015250565b600062003b3e601983620030d3565b915062003b4b8262003b06565b602082019050919050565b6000602082019050818103600083015262003b718162003b2f565b9050919050565b7f526566657272657220616c726561647920736574000000000000000000000000600082015250565b600062003bb0601483620030d3565b915062003bbd8262003b78565b602082019050919050565b6000602082019050818103600083015262003be38162003ba1565b9050919050565b7f526566657272616c206e6f742076616c696420756e74696c207374616b696e67600082015250565b600062003c22602083620030d3565b915062003c2f8262003bea565b602082019050919050565b6000602082019050818103600083015262003c558162003c13565b9050919050565b7f4f776e61626c653a206e6577206f776e657220697320746865207a65726f206160008201527f6464726573730000000000000000000000000000000000000000000000000000602082015250565b600062003cba602683620030d3565b915062003cc78262003c5c565b604082019050919050565b6000602082019050818103600083015262003ced8162003cab565b9050919050565b7f4e6f7420656e6f7567682070726f666974000000000000000000000000000000600082015250565b600062003d2c601183620030d3565b915062003d398262003cf4565b602082019050919050565b6000602082019050818103600083015262003d5f8162003d1d565b9050919050565b7f4f776e61626c653a2063616c6c6572206973206e6f7420746865206f776e6572600082015250565b600062003d9e602083620030d3565b915062003dab8262003d66565b602082019050919050565b6000602082019050818103600083015262003dd18162003d8f565b9050919050565b7f5265656e7472616e637947756172643a207265656e7472616e742063616c6c00600082015250565b600062003e10601f83620030d3565b915062003e1d8262003dd8565b602082019050919050565b6000602082019050818103600083015262003e438162003e01565b905091905056fe60806040523480156200001157600080fd5b5060405162001de338038062001de383398181016040528101906200003791906200049d565b848481600390816200004a9190620007a4565b5080600490816200005c9190620007a4565b50505081600560006101000a81548160ff021916908360ff160217905550620000aa818360ff16600a62000091919062000a0e565b856200009e919062000a5f565b620000b560201b60201c565b505050505062000b96565b600073ffffffffffffffffffffffffffffffffffffffff168273ffffffffffffffffffffffffffffffffffffffff160362000127576040517f08c379a00000000000000000000000000000000000000000000000000000000081526004016200011e9062000b0b565b60405180910390fd5b6200013b600083836200022260201b60201c565b80600260008282546200014f919062000b2d565b92505081905550806000808473ffffffffffffffffffffffffffffffffffffffff1673ffffffffffffffffffffffffffffffffffffffff168152602001908152602001600020600082825401925050819055508173ffffffffffffffffffffffffffffffffffffffff16600073ffffffffffffffffffffffffffffffffffffffff167fddf252ad1be2c89b69c2b068fc378daa952ba7f163c4a11628f55a4df523b3ef8360405162000202919062000b79565b60405180910390a36200021e600083836200022760201b60201c565b5050565b505050565b505050565b6000604051905090565b600080fd5b600080fd5b600080fd5b600080fd5b6000601f19601f8301169050919050565b7f4e487b7100000000000000000000000000000000000000000000000000000000600052604160045260246000fd5b62000295826200024a565b810181811067ffffffffffffffff82111715620002b757620002b66200025b565b5b80604052505050565b6000620002cc6200022c565b9050620002da82826200028a565b919050565b600067ffffffffffffffff821115620002fd57620002fc6200025b565b5b62000308826200024a565b9050602081019050919050565b60005b838110156200033557808201518184015260208101905062000318565b60008484015250505050565b6000620003586200035284620002df565b620002c0565b90508281526020810184848401111562000377576200037662000245565b5b6200038484828562000315565b509392505050565b600082601f830112620003a457620003a362000240565b5b8151620003b684826020860162000341565b91505092915050565b6000819050919050565b620003d481620003bf565b8114620003e057600080fd5b50565b600081519050620003f481620003c9565b92915050565b600060ff82169050919050565b6200041281620003fa565b81146200041e57600080fd5b50565b600081519050620004328162000407565b92915050565b600073ffffffffffffffffffffffffffffffffffffffff82169050919050565b6000620004658262000438565b9050919050565b620004778162000458565b81146200048357600080fd5b50565b60008151905062000497816200046c565b92915050565b600080600080600060a08688031215620004bc57620004bb62000236565b5b600086015167ffffffffffffffff811115620004dd57620004dc6200023b565b5b620004eb888289016200038c565b955050602086015167ffffffffffffffff8111156200050f576200050e6200023b565b5b6200051d888289016200038c565b94505060406200053088828901620003e3565b9350506060620005438882890162000421565b9250506080620005568882890162000486565b9150509295509295909350565b600081519050919050565b7f4e487b7100000000000000000000000000000000000000000000000000000000600052602260045260246000fd5b60006002820490506001821680620005b657607f821691505b602082108103620005cc57620005cb6200056e565b5b50919050565b60008190508160005260206000209050919050565b60006020601f8301049050919050565b600082821b905092915050565b600060088302620006367fffffffffffffffffffffffffffffffffffffffffffffffffffffffffffffffff82620005f7565b620006428683620005f7565b95508019841693508086168417925050509392505050565b6000819050919050565b6000620006856200067f6200067984620003bf565b6200065a565b620003bf565b9050919050565b6000819050919050565b620006a18362000664565b620006b9620006b0826200068c565b84845462000604565b825550505050565b600090565b620006d0620006c1565b620006dd81848462000696565b505050565b5b818110156200070557620006f9600082620006c6565b600181019050620006e3565b5050565b601f82111562000754576200071e81620005d2565b6200072984620005e7565b8101602085101562000739578190505b620007516200074885620005e7565b830182620006e2565b50505b505050565b600082821c905092915050565b6000620007796000198460080262000759565b1980831691505092915050565b600062000794838362000766565b9150826002028217905092915050565b620007af8262000563565b67ffffffffffffffff811115620007cb57620007ca6200025b565b5b620007d782546200059d565b620007e482828562000709565b600060209050601f8311600181146200081c576000841562000807578287015190505b62000813858262000786565b86555062000883565b601f1984166200082c86620005d2565b60005b8281101562000856578489015182556001820191506020850194506020810190506200082f565b8683101562000876578489015162000872601f89168262000766565b8355505b6001600288020188555050505b505050505050565b7f4e487b7100000000000000000000000000000000000000000000000000000000600052601160045260246000fd5b60008160011c9050919050565b6000808291508390505b60018511156200091957808604811115620008f157620008f06200088b565b5b6001851615620009015780820291505b80810290506200091185620008ba565b9450620008d1565b94509492505050565b60008262000934576001905062000a07565b8162000944576000905062000a07565b81600181146200095d576002811462000968576200099e565b600191505062000a07565b60ff8411156200097d576200097c6200088b565b5b8360020a9150848211156200099757620009966200088b565b5b5062000a07565b5060208310610133831016604e8410600b8410161715620009d85782820a905083811115620009d257620009d16200088b565b5b62000a07565b620009e78484846001620008c7565b9250905081840481111562000a015762000a006200088b565b5b81810290505b9392505050565b600062000a1b82620003bf565b915062000a2883620003bf565b925062000a577fffffffffffffffffffffffffffffffffffffffffffffffffffffffffffffffff848462000922565b905092915050565b600062000a6c82620003bf565b915062000a7983620003bf565b925082820262000a8981620003bf565b9150828204841483151762000aa35762000aa26200088b565b5b5092915050565b600082825260208201905092915050565b7f45524332303a206d696e7420746f20746865207a65726f206164647265737300600082015250565b600062000af3601f8362000aaa565b915062000b008262000abb565b602082019050919050565b6000602082019050818103600083015262000b268162000ae4565b9050919050565b600062000b3a82620003bf565b915062000b4783620003bf565b925082820190508082111562000b625762000b616200088b565b5b92915050565b62000b7381620003bf565b82525050565b600060208201905062000b90600083018462000b68565b92915050565b61123d8062000ba66000396000f3fe608060405234801561001057600080fd5b50600436106100a95760003560e01c80633950935111610071578063395093511461016857806370a082311461019857806395d89b41146101c8578063a457c2d7146101e6578063a9059cbb14610216578063dd62ed3e14610246576100a9565b806306fdde03146100ae578063095ea7b3146100cc57806318160ddd146100fc57806323b872dd1461011a578063313ce5671461014a575b600080fd5b6100b6610276565b6040516100c39190610b1a565b60405180910390f35b6100e660048036038101906100e19190610bd5565b610308565b6040516100f39190610c30565b60405180910390f35b61010461032b565b6040516101119190610c5a565b60405180910390f35b610134600480360381019061012f9190610c75565b610335565b6040516101419190610c30565b60405180910390f35b610152610364565b60405161015f9190610ce4565b60405180910390f35b610182600480360381019061017d9190610bd5565b61037b565b60405161018f9190610c30565b60405180910390f35b6101b260048036038101906101ad9190610cff565b6103b2565b6040516101bf9190610c5a565b60405180910390f35b6101d06103fa565b6040516101dd9190610b1a565b60405180910390f35b61020060048036038101906101fb9190610bd5565b61048c565b60405161020d9190610c30565b60405180910390f35b610230600480360381019061022b9190610bd5565b610503565b60405161023d9190610c30565b60405180910390f35b610260600480360381019061025b9190610d2c565b610526565b60405161026d9190610c5a565b60405180910390f35b60606003805461028590610d9b565b80601f01602080910402602001604051908101604052809291908181526020018280546102b190610d9b565b80156102fe5780601f106102d3576101008083540402835291602001916102fe565b820191906000526020600020905b8154815290600101906020018083116102e157829003601f168201915b5050505050905090565b6000806103136105ad565b90506103208185856105b5565b600191505092915050565b6000600254905090565b6000806103406105ad565b905061034d85828561077e565b61035885858561080a565b60019150509392505050565b6000600560009054906101000a900460ff16905090565b6000806103866105ad565b90506103a78185856103988589610526565b6103a29190610dfb565b6105b5565b600191505092915050565b60008060008373ffffffffffffffffffffffffffffffffffffffff1673ffffffffffffffffffffffffffffffffffffffff168152602001908152602001600020549050919050565b60606004805461040990610d9b565b80601f016020809104026020016040519081016040528092919081815260200182805461043590610d9b565b80156104825780601f1061045757610100808354040283529160200191610482565b820191906000526020600020905b81548152906001019060200180831161046557829003601f168201915b5050505050905090565b6000806104976105ad565b905060006104a58286610526565b9050838110156104ea576040517f08c379a00000000000000000000000000000000000000000000000000000000081526004016104e190610ea1565b60405180910390fd5b6104f782868684036105b5565b60019250505092915050565b60008061050e6105ad565b905061051b81858561080a565b600191505092915050565b6000600160008473ffffffffffffffffffffffffffffffffffffffff1673ffffffffffffffffffffffffffffffffffffffff16815260200190815260200160002060008373ffffffffffffffffffffffffffffffffffffffff1673ffffffffffffffffffffffffffffffffffffffff16815260200190815260200160002054905092915050565b600033905090565b600073ffffffffffffffffffffffffffffffffffffffff168373ffffffffffffffffffffffffffffffffffffffff1603610624576040517f08c379a000000000000000000000000000000000000000000000000000000000815260040161061b90610f33565b60405180910390fd5b600073ffffffffffffffffffffffffffffffffffffffff168273ffffffffffffffffffffffffffffffffffffffff1603610693576040517f08c379a000000000000000000000000000000000000000000000000000000000815260040161068a90610fc5565b60405180910390fd5b80600160008573ffffffffffffffffffffffffffffffffffffffff1673ffffffffffffffffffffffffffffffffffffffff16815260200190815260200160002060008473ffffffffffffffffffffffffffffffffffffffff1673ffffffffffffffffffffffffffffffffffffffff168152602001908152602001600020819055508173ffffffffffffffffffffffffffffffffffffffff168373ffffffffffffffffffffffffffffffffffffffff167f8c5be1e5ebec7d5bd14f71427d1e84f3dd0314c0f7b2291e5b200ac8c7c3b925836040516107719190610c5a565b60405180910390a3505050565b600061078a8484610526565b90507fffffffffffffffffffffffffffffffffffffffffffffffffffffffffffffffff811461080457818110156107f6576040517f08c379a00000000000000000000000000000000000000000000000000000000081526004016107ed90611031565b60405180910390fd5b61080384848484036105b5565b5b50505050565b600073ffffffffffffffffffffffffffffffffffffffff168373ffffffffffffffffffffffffffffffffffffffff1603610879576040517f08c379a0000000000000000000000000000000000000000000000000000000008152600401610870906110c3565b60405180910390fd5b600073ffffffffffffffffffffffffffffffffffffffff168273ffffffffffffffffffffffffffffffffffffffff16036108e8576040517f08c379a00000000000000000000000000000000000000000000000000000000081526004016108df90611155565b60405180910390fd5b6108f3838383610a80565b60008060008573ffffffffffffffffffffffffffffffffffffffff1673ffffffffffffffffffffffffffffffffffffffff16815260200190815260200160002054905081811015610979576040517f08c379a0000000000000000000000000000000000000000000000000000000008152600401610970906111e7565b60405180910390fd5b8181036000808673ffffffffffffffffffffffffffffffffffffffff1673ffffffffffffffffffffffffffffffffffffffff16815260200190815260200160002081905550816000808573ffffffffffffffffffffffffffffffffffffffff1673ffffffffffffffffffffffffffffffffffffffff168152602001908152602001600020600082825401925050819055508273ffffffffffffffffffffffffffffffffffffffff168473ffffffffffffffffffffffffffffffffffffffff167fddf252ad1be2c89b69c2b068fc378daa952ba7f163c4a11628f55a4df523b3ef84604051610a679190610c5a565b60405180910390a3610a7a848484610a85565b50505050565b505050565b505050565b600081519050919050565b600082825260208201905092915050565b60005b83811015610ac4578082015181840152602081019050610aa9565b60008484015250505050565b6000601f19601f8301169050919050565b6000610aec82610a8a565b610af68185610a95565b9350610b06818560208601610aa6565b610b0f81610ad0565b840191505092915050565b60006020820190508181036000830152610b348184610ae1565b905092915050565b600080fd5b600073ffffffffffffffffffffffffffffffffffffffff82169050919050565b6000610b6c82610b41565b9050919050565b610b7c81610b61565b8114610b8757600080fd5b50565b600081359050610b9981610b73565b92915050565b6000819050919050565b610bb281610b9f565b8114610bbd57600080fd5b50565b600081359050610bcf81610ba9565b92915050565b60008060408385031215610bec57610beb610b3c565b5b6000610bfa85828601610b8a565b9250506020610c0b85828601610bc0565b9150509250929050565b60008115159050919050565b610c2a81610c15565b82525050565b6000602082019050610c456000830184610c21565b92915050565b610c5481610b9f565b82525050565b6000602082019050610c6f6000830184610c4b565b92915050565b600080600060608486031215610c8e57610c8d610b3c565b5b6000610c9c86828701610b8a565b9350506020610cad86828701610b8a565b9250506040610cbe86828701610bc0565b9150509250925092565b600060ff82169050919050565b610cde81610cc8565b82525050565b6000602082019050610cf96000830184610cd5565b92915050565b600060208284031215610d1557610d14610b3c565b5b6000610d2384828501610b8a565b91505092915050565b60008060408385031215610d4357610d42610b3c565b5b6000610d5185828601610b8a565b9250506020610d6285828601610b8a565b9150509250929050565b7f4e487b7100000000000000000000000000000000000000000000000000000000600052602260045260246000fd5b60006002820490506001821680610db357607f821691505b602082108103610dc657610dc5610d6c565b5b50919050565b7f4e487b7100000000000000000000000000000000000000000000000000000000600052601160045260246000fd5b6000610e0682610b9f565b9150610e1183610b9f565b9250828201905080821115610e2957610e28610dcc565b5b92915050565b7f45524332303a2064656372656173656420616c6c6f77616e63652062656c6f7760008201527f207a65726f000000000000000000000000000000000000000000000000000000602082015250565b6000610e8b602583610a95565b9150610e9682610e2f565b604082019050919050565b60006020820190508181036000830152610eba81610e7e565b9050919050565b7f45524332303a20617070726f76652066726f6d20746865207a65726f2061646460008201527f7265737300000000000000000000000000000000000000000000000000000000602082015250565b6000610f1d602483610a95565b9150610f2882610ec1565b604082019050919050565b60006020820190508181036000830152610f4c81610f10565b9050919050565b7f45524332303a20617070726f766520746f20746865207a65726f20616464726560008201527f7373000000000000000000000000000000000000000000000000000000000000602082015250565b6000610faf602283610a95565b9150610fba82610f53565b604082019050919050565b60006020820190508181036000830152610fde81610fa2565b9050919050565b7f45524332303a20696e73756666696369656e7420616c6c6f77616e6365000000600082015250565b600061101b601d83610a95565b915061102682610fe5565b602082019050919050565b6000602082019050818103600083015261104a8161100e565b9050919050565b7f45524332303a207472616e736665722066726f6d20746865207a65726f20616460008201527f6472657373000000000000000000000000000000000000000000000000000000602082015250565b60006110ad602583610a95565b91506110b882611051565b604082019050919050565b600060208201905081810360008301526110dc816110a0565b9050919050565b7f45524332303a207472616e7366657220746f20746865207a65726f206164647260008201527f6573730000000000000000000000000000000000000000000000000000000000602082015250565b600061113f602383610a95565b915061114a826110e3565b604082019050919050565b6000602082019050818103600083015261116e81611132565b9050919050565b7f45524332303a207472616e7366657220616d6f756e742065786365656473206260008201527f616c616e63650000000000000000000000000000000000000000000000000000602082015250565b60006111d1602683610a95565b91506111dc82611175565b604082019050919050565b60006020820190508181036000830152611200816111c4565b905091905056fea26469706673582212201876fad4c5f44743282b45277830761fc09257e59abcd8d52dfae4ff0d17d5ff64736f6c63430008180033a26469706673582212201e90e0e65252f13ec9fcd85125fa4073c9e81d928fd6fe66ba3eeca5e6ee07b564736f6c63430008180033",
  "linkReferences": {},
  "deployedLinkReferences": {}
}