{
  "_format": "hh-sol-artifact-1",
  "contractName": "TokenStaking",
  "sourceName": "contracts/Staking.sol",
  "abi": [
    {
      "anonymous": false,
      "inputs": [
        {
          "indexed": true,
          "internalType": "address",
          "name": "user",
          "type": "address"
        },
        {
          "indexed": false,
          "internalType": "uint256",
          "name": "poolId",
          "type": "uint256"
        },
        {
          "indexed": false,
          "internalType": "uint256",
          "name": "newBalance",
          "type": "uint256"
        }
      ],
      "name": "BalanceUpdated",
      "type": "event"
    },
    {
      "anonymous": false,
      "inputs": [
        {
          "indexed": true,
          "internalType": "address",
          "name": "user",
          "type": "address"
        },
        {
          "indexed": false,
          "internalType": "uint256",
          "name": "poolId",
          "type": "uint256"
        },
        {
          "indexed": false,
          "internalType": "uint256",
          "name": "newDepositTime",
          "type": "uint256"
        }
      ],
      "name": "DepositTimeUpdated",
      "type": "event"
    },
    {
      "anonymous": false,
      "inputs": [
        {
          "indexed": false,
          "internalType": "uint256",
          "name": "poolId",
          "type": "uint256"
        },
        {
          "indexed": false,
          "internalType": "uint256",
          "name": "newDuration",
          "type": "uint256"
        }
      ],
      "name": "DurationUpdated",
      "type": "event"
    },
    {
      "anonymous": false,
      "inputs": [
        {
          "indexed": true,
          "internalType": "address",
          "name": "previousOwner",
          "type": "address"
        },
        {
          "indexed": true,
          "internalType": "address",
          "name": "newOwner",
          "type": "address"
        }
      ],
      "name": "OwnershipTransferred",
      "type": "event"
    },
    {
      "anonymous": false,
      "inputs": [
        {
          "indexed": false,
          "internalType": "uint256",
          "name": "poolId",
          "type": "uint256"
        },
        {
          "indexed": false,
          "internalType": "address",
          "name": "stakingToken",
          "type": "address"
        },
        {
          "indexed": false,
          "internalType": "address",
          "name": "rewardToken",
          "type": "address"
        },
        {
          "indexed": false,
          "internalType": "uint256",
          "name": "duration",
          "type": "uint256"
        },
        {
          "indexed": false,
          "internalType": "uint256",
          "name": "rewardRate",
          "type": "uint256"
        }
      ],
      "name": "PoolCreated",
      "type": "event"
    },
    {
      "anonymous": false,
      "inputs": [
        {
          "indexed": true,
          "internalType": "address",
          "name": "user",
          "type": "address"
        },
        {
          "indexed": false,
          "internalType": "uint256",
          "name": "profit",
          "type": "uint256"
        },
        {
          "indexed": false,
          "internalType": "uint256",
          "name": "poolId",
          "type": "uint256"
        }
      ],
      "name": "ProfitWithdrawn",
      "type": "event"
    },
    {
      "anonymous": false,
      "inputs": [
        {
          "indexed": false,
          "internalType": "uint256",
          "name": "poolId",
          "type": "uint256"
        },
        {
          "indexed": false,
          "internalType": "uint256",
          "name": "newRewardRate",
          "type": "uint256"
        }
      ],
      "name": "RewardRateUpdated",
      "type": "event"
    },
    {
      "anonymous": false,
      "inputs": [
        {
          "indexed": true,
          "internalType": "address",
          "name": "user",
          "type": "address"
        },
        {
          "indexed": false,
          "internalType": "uint256",
          "name": "amount",
          "type": "uint256"
        },
        {
          "indexed": false,
          "internalType": "uint256",
          "name": "poolId",
          "type": "uint256"
        }
      ],
      "name": "Staked",
      "type": "event"
    },
    {
      "anonymous": false,
      "inputs": [
        {
          "indexed": false,
          "internalType": "address",
          "name": "tokenAddress",
          "type": "address"
        },
        {
          "indexed": false,
          "internalType": "string",
          "name": "name",
          "type": "string"
        },
        {
          "indexed": false,
          "internalType": "string",
          "name": "symbol",
          "type": "string"
        },
        {
          "indexed": false,
          "internalType": "uint256",
          "name": "initialSupply",
          "type": "uint256"
        }
      ],
      "name": "TokenCreated",
      "type": "event"
    },
    {
      "anonymous": false,
      "inputs": [
        {
          "indexed": true,
          "internalType": "address",
          "name": "user",
          "type": "address"
        },
        {
          "indexed": false,
          "internalType": "uint256",
          "name": "amount",
          "type": "uint256"
        },
        {
          "indexed": false,
          "internalType": "uint256",
          "name": "reward",
          "type": "uint256"
        },
        {
          "indexed": false,
          "internalType": "uint256",
          "name": "poolId",
          "type": "uint256"
        }
      ],
      "name": "Withdrawn",
      "type": "event"
    },
    {
      "inputs": [
        {
          "internalType": "address",
          "name": "referrer",
          "type": "address"
        }
      ],
      "name": "addReferral",
      "outputs": [],
      "stateMutability": "nonpayable",
      "type": "function"
    },
    {
      "inputs": [
        {
          "internalType": "uint256",
          "name": "",
          "type": "uint256"
        }
      ],
      "name": "allTokens",
      "outputs": [
        {
          "internalType": "contract MyCustomToken",
          "name": "",
          "type": "address"
        }
      ],
      "stateMutability": "view",
      "type": "function"
    },
    {
      "inputs": [
        {
          "internalType": "address",
          "name": "user",
          "type": "address"
        },
        {
          "internalType": "uint256",
          "name": "poolId",
          "type": "uint256"
        }
      ],
      "name": "calculateProfit",
      "outputs": [
        {
          "internalType": "uint256",
          "name": "",
          "type": "uint256"
        }
      ],
      "stateMutability": "view",
      "type": "function"
    },
    {
      "inputs": [
        {
          "internalType": "address",
          "name": "stakingToken",
          "type": "address"
        },
        {
          "internalType": "address",
          "name": "rewardToken",
          "type": "address"
        },
        {
          "internalType": "uint256",
          "name": "duration",
          "type": "uint256"
        },
        {
          "internalType": "uint256",
          "name": "rewardRate",
          "type": "uint256"
        }
      ],
      "name": "createPool",
      "outputs": [],
      "stateMutability": "nonpayable",
      "type": "function"
    },
    {
      "inputs": [
        {
          "internalType": "string",
          "name": "name",
          "type": "string"
        },
        {
          "internalType": "string",
          "name": "symbol",
          "type": "string"
        },
        {
          "internalType": "uint256",
          "name": "initialSupply",
          "type": "uint256"
        },
        {
          "internalType": "uint8",
          "name": "decimal",
          "type": "uint8"
        }
      ],
      "name": "createToken",
      "outputs": [
        {
          "internalType": "address",
          "name": "",
          "type": "address"
        }
      ],
      "stateMutability": "nonpayable",
      "type": "function"
    },
    {
      "inputs": [],
      "name": "getAllTokens",
      "outputs": [
        {
          "internalType": "contract MyCustomToken[]",
          "name": "",
          "type": "address[]"
        }
      ],
      "stateMutability": "view",
      "type": "function"
    },
    {
      "inputs": [],
      "name": "owner",
      "outputs": [
        {
          "internalType": "address",
          "name": "",
          "type": "address"
        }
      ],
      "stateMutability": "view",
      "type": "function"
    },
    {
      "inputs": [
        {
          "internalType": "uint256",
          "name": "",
          "type": "uint256"
        }
      ],
      "name": "pools",
      "outputs": [
        {
          "internalType": "contract IERC20",
          "name": "stakingToken",
          "type": "address"
        },
        {
          "internalType": "contract IERC20",
          "name": "rewardToken",
          "type": "address"
        },
        {
          "internalType": "uint256",
          "name": "duration",
          "type": "uint256"
        },
        {
          "internalType": "uint256",
          "name": "rewardRate",
          "type": "uint256"
        },
        {
          "internalType": "uint256",
          "name": "minStakeAmount",
          "type": "uint256"
        }
      ],
      "stateMutability": "view",
      "type": "function"
    },
    {
      "inputs": [
        {
          "internalType": "address",
          "name": "",
          "type": "address"
        },
        {
          "internalType": "uint256",
          "name": "",
          "type": "uint256"
        }
      ],
      "name": "referrals",
      "outputs": [
        {
          "internalType": "address",
          "name": "",
          "type": "address"
        }
      ],
      "stateMutability": "view",
      "type": "function"
    },
    {
      "inputs": [
        {
          "internalType": "address",
          "name": "",
          "type": "address"
        }
      ],
      "name": "referredBy",
      "outputs": [
        {
          "internalType": "address",
          "name": "",
          "type": "address"
        }
      ],
      "stateMutability": "view",
      "type": "function"
    },
    {
      "inputs": [],
      "name": "renounceOwnership",
      "outputs": [],
      "stateMutability": "nonpayable",
      "type": "function"
    },
    {
      "inputs": [
        {
          "internalType": "uint256",
          "name": "_amount",
          "type": "uint256"
        },
        {
          "internalType": "uint8",
          "name": "_poolId",
          "type": "uint8"
        }
      ],
      "name": "setMinStakeAmount",
      "outputs": [],
      "stateMutability": "nonpayable",
      "type": "function"
    },
    {
      "inputs": [
        {
          "internalType": "address",
          "name": "_addr",
          "type": "address"
        },
        {
          "internalType": "uint256",
          "name": "_poolId",
          "type": "uint256"
        }
      ],
      "name": "showMyBalancesInPool",
      "outputs": [
        {
          "internalType": "uint256",
          "name": "",
          "type": "uint256"
        }
      ],
      "stateMutability": "view",
      "type": "function"
    },
    {
      "inputs": [
        {
          "internalType": "uint256",
          "name": "_amount",
          "type": "uint256"
        },
        {
          "internalType": "uint256",
          "name": "_poolId",
          "type": "uint256"
        }
      ],
      "name": "stake",
      "outputs": [],
      "stateMutability": "nonpayable",
      "type": "function"
    },
    {
      "inputs": [
        {
          "internalType": "address",
          "name": "newOwner",
          "type": "address"
        }
      ],
      "name": "transferOwnership",
      "outputs": [],
      "stateMutability": "nonpayable",
      "type": "function"
    },
    {
      "inputs": [
        {
          "internalType": "address",
          "name": "",
          "type": "address"
        }
      ],
      "name": "validForReferrer",
      "outputs": [
        {
          "internalType": "bool",
          "name": "",
          "type": "bool"
        }
      ],
      "stateMutability": "view",
      "type": "function"
    },
    {
      "inputs": [
        {
          "internalType": "uint256",
          "name": "_poolId",
          "type": "uint256"
        }
      ],
      "name": "withdrawAllAmount",
      "outputs": [],
      "stateMutability": "nonpayable",
      "type": "function"
    },
    {
      "inputs": [
        {
          "internalType": "uint256",
          "name": "_poolId",
          "type": "uint256"
        }
      ],
      "name": "withdrawProfit",
      "outputs": [],
      "stateMutability": "nonpayable",
      "type": "function"
    },
    {
      "inputs": [
        {
          "internalType": "uint256",
          "name": "amount",
          "type": "uint256"
        },
        {
          "internalType": "uint256",
          "name": "_poolId",
          "type": "uint256"
        }
      ],
      "name": "withdrawSpecificProfit",
      "outputs": [],
      "stateMutability": "nonpayable",
      "type": "function"
    }
  ],
  "bytecode": "0x60806040523480156200001157600080fd5b5062000032620000266200003f60201b60201c565b6200004760201b60201c565b600180819055506200010b565b600033905090565b60008060009054906101000a900473ffffffffffffffffffffffffffffffffffffffff169050816000806101000a81548173ffffffffffffffffffffffffffffffffffffffff021916908373ffffffffffffffffffffffffffffffffffffffff1602179055508173ffffffffffffffffffffffffffffffffffffffff168173ffffffffffffffffffffffffffffffffffffffff167f8be0079c531659141344cd1fd0a4f28419497f9722a3daafe3b4186f6b6457e060405160405180910390a35050565b61559e806200011b6000396000f3fe60806040523480156200001157600080fd5b50600436106200013c5760003560e01c8063a90f8e9a11620000bd578063e697b5d8116200007b578063e697b5d81462000379578063e8aca46a14620003af578063f2fde38b14620003cf578063f39d67be14620003ef578063fcf25ae71462000425576200013c565b8063a90f8e9a146200027d578063ac4afa3814620002b3578063ae61f6d214620002ed578063b64acddd1462000323578063d82a2bea1462000359576200013c565b806373c81131116200010b57806373c8113114620001db5780637b0472f014620001fb578063884db063146200021b5780638da5cb5b146200023b57806390274c61146200025d576200013c565b80632a5c792a14620001415780633edaa34b1462000163578063634282af1462000199578063715018a614620001cf575b600080fd5b6200014b62000445565b6040516200015a9190620025ca565b60405180910390f35b6200018160048036038101906200017b919062002682565b620004d5565b604051620001909190620026da565b60405180910390f35b620001b76004803603810190620001b19190620026f7565b6200058f565b604051620001c691906200273a565b60405180910390f35b620001d9620005cf565b005b620001f96004803603810190620001f3919062002795565b620005e7565b005b620002196004803603810190620002139190620027dc565b6200062b565b005b62000239600480360381019062000233919062002823565b62000ba0565b005b6200024562000d78565b604051620002549190620028a6565b60405180910390f35b6200027b6004803603810190620002759190620026f7565b62000da1565b005b6200029b6004803603810190620002959190620028c3565b620011bc565b604051620002aa9190620028a6565b60405180910390f35b620002d16004803603810190620002cb9190620026f7565b620011ef565b604051620002e49594939291906200291a565b60405180910390f35b6200030b600480360381019062000305919062002682565b62001276565b6040516200031a9190620026da565b60405180910390f35b6200034160048036038101906200033b919062002ad9565b620014d6565b604051620003509190620028a6565b60405180910390f35b620003776004803603810190620003719190620026f7565b620015d5565b005b62000397600480360381019062000391919062002682565b62001822565b604051620003a69190620028a6565b60405180910390f35b620003cd6004803603810190620003c79190620028c3565b62001871565b005b620003ed6004803603810190620003e79190620028c3565b62001b63565b005b6200040d6004803603810190620004079190620028c3565b62001bed565b6040516200041c919062002ba6565b60405180910390f35b6200044360048036038101906200043d9190620027dc565b62001c0d565b005b60606002805480602002602001604051908101604052809291908181526020018280548015620004cb57602002820191906000526020600020905b8160009054906101000a900473ffffffffffffffffffffffffffffffffffffffff1673ffffffffffffffffffffffffffffffffffffffff168152602001906001019080831162000480575b5050505050905090565b6000600380549050821062000521576040517f08c379a0000000000000000000000000000000000000000000000000000000008152600401620005189062002c24565b60405180910390fd5b6003828154811062000538576200053762002c46565b5b906000526020600020906008020160050160008473ffffffffffffffffffffffffffffffffffffffff1673ffffffffffffffffffffffffffffffffffffffff16815260200190815260200160002054905092915050565b60028181548110620005a057600080fd5b906000526020600020016000915054906101000a900473ffffffffffffffffffffffffffffffffffffffff1681565b620005d962001e4e565b620005e5600062001ed3565b565b620005f162001e4e565b600060038260ff16815481106200060d576200060c62002c46565b5b90600052602060002090600802019050828160040181905550505050565b6200063562001f97565b60038054905081106200067f576040517f08c379a0000000000000000000000000000000000000000000000000000000008152600401620006769062002c24565b60405180910390fd5b60008211620006c5576040517f08c379a0000000000000000000000000000000000000000000000000000000008152600401620006bc9062002cc5565b60405180910390fd5b600060038281548110620006de57620006dd62002c46565b5b90600052602060002090600802019050806004015483101562000738576040517f08c379a00000000000000000000000000000000000000000000000000000000081526004016200072f9062002d37565b60405180910390fd5b828160000160009054906101000a900473ffffffffffffffffffffffffffffffffffffffff1673ffffffffffffffffffffffffffffffffffffffff166370a08231336040518263ffffffff1660e01b8152600401620007989190620028a6565b602060405180830381865afa158015620007b6573d6000803e3d6000fd5b505050506040513d601f19601f82011682018060405250810190620007dc919062002d70565b101562000820576040517f08c379a0000000000000000000000000000000000000000000000000000000008152600401620008179062002df2565b60405180910390fd5b828160000160009054906101000a900473ffffffffffffffffffffffffffffffffffffffff1673ffffffffffffffffffffffffffffffffffffffff1663dd62ed3e33306040518363ffffffff1660e01b81526004016200088292919062002e14565b602060405180830381865afa158015620008a0573d6000803e3d6000fd5b505050506040513d601f19601f82011682018060405250810190620008c6919062002d70565b10156200090a576040517f08c379a0000000000000000000000000000000000000000000000000000000008152600401620009019062002e91565b60405180910390fd5b6001600460003373ffffffffffffffffffffffffffffffffffffffff1673ffffffffffffffffffffffffffffffffffffffff16815260200190815260200160002060006101000a81548160ff0219169083151502179055508060000160009054906101000a900473ffffffffffffffffffffffffffffffffffffffff1673ffffffffffffffffffffffffffffffffffffffff166323b872dd3330866040518463ffffffff1660e01b8152600401620009c59392919062002eb3565b6020604051808303816000875af1158015620009e5573d6000803e3d6000fd5b505050506040513d601f19601f8201168201806040525081019062000a0b919062002f21565b50828160050160003373ffffffffffffffffffffffffffffffffffffffff1673ffffffffffffffffffffffffffffffffffffffff168152602001908152602001600020600082825462000a5f919062002f82565b92505081905550428160060160003373ffffffffffffffffffffffffffffffffffffffff1673ffffffffffffffffffffffffffffffffffffffff168152602001908152602001600020819055503373ffffffffffffffffffffffffffffffffffffffff167f1449c6dd7851abc30abf37f57715f492010519147cc2652fbc38202c18a6ee90848460405162000af692919062002fbd565b60405180910390a23373ffffffffffffffffffffffffffffffffffffffff167f5e00297b9c4f8fef460c4d7123316eeeb08a64a0930d1d9cae0b61b7f663b254838360050160003373ffffffffffffffffffffffffffffffffffffffff1673ffffffffffffffffffffffffffffffffffffffff1681526020019081526020016000205460405162000b8992919062002fbd565b60405180910390a25062000b9c62001fe9565b5050565b62000baa62001e4e565b600060036001816001815401808255809150500390600052602060002090600802019050848160000160006101000a81548173ffffffffffffffffffffffffffffffffffffffff021916908373ffffffffffffffffffffffffffffffffffffffff160217905550838160010160006101000a81548173ffffffffffffffffffffffffffffffffffffffff021916908373ffffffffffffffffffffffffffffffffffffffff1602179055508281600201819055508181600301819055506000600160038054905062000c7c919062002fea565b90507f1af6355a170ecc0327e49a9aa985a86667dc35a39b8b29f632cd215a9f496180818787878760405162000cb795949392919062003025565b60405180910390a18160000160009054906101000a900473ffffffffffffffffffffffffffffffffffffffff1673ffffffffffffffffffffffffffffffffffffffff1663a9059cbb3368056bc75e2d631000006040518363ffffffff1660e01b815260040162000d29929190620030c5565b6020604051808303816000875af115801562000d49573d6000803e3d6000fd5b505050506040513d601f19601f8201168201806040525081019062000d6f919062002f21565b50505050505050565b60008060009054906101000a900473ffffffffffffffffffffffffffffffffffffffff16905090565b62000dab62001f97565b600380549050811062000df5576040517f08c379a000000000000000000000000000000000000000000000000000000000815260040162000dec9062002c24565b60405180910390fd5b60006003828154811062000e0e5762000e0d62002c46565b5b9060005260206000209060080201905060008160050160003373ffffffffffffffffffffffffffffffffffffffff1673ffffffffffffffffffffffffffffffffffffffff1681526020019081526020016000205490506000811162000eaa576040517f08c379a000000000000000000000000000000000000000000000000000000000815260040162000ea19062003142565b60405180910390fd5b60008260060160003373ffffffffffffffffffffffffffffffffffffffff1673ffffffffffffffffffffffffffffffffffffffff168152602001908152602001600020544262000efb919062002fea565b905060008360020154821062000f1a5762000f17338662001276565b90505b62000f2781338762001ff2565b60008460050160003373ffffffffffffffffffffffffffffffffffffffff1673ffffffffffffffffffffffffffffffffffffffff1681526020019081526020016000208190555060008460060160003373ffffffffffffffffffffffffffffffffffffffff1673ffffffffffffffffffffffffffffffffffffffff168152602001908152602001600020819055508360000160009054906101000a900473ffffffffffffffffffffffffffffffffffffffff1673ffffffffffffffffffffffffffffffffffffffff1663a9059cbb33856040518363ffffffff1660e01b81526004016200101692919062003164565b6020604051808303816000875af115801562001036573d6000803e3d6000fd5b505050506040513d601f19601f820116820180604052508101906200105c919062002f21565b508360010160009054906101000a900473ffffffffffffffffffffffffffffffffffffffff1673ffffffffffffffffffffffffffffffffffffffff1663a9059cbb33836040518363ffffffff1660e01b8152600401620010be92919062003164565b6020604051808303816000875af1158015620010de573d6000803e3d6000fd5b505050506040513d601f19601f8201168201806040525081019062001104919062002f21565b503373ffffffffffffffffffffffffffffffffffffffff167f092aa588fea04f5f76814b8a23143fd3dcd203961584367074e84589e12425ad82876040516200114f92919062002fbd565b60405180910390a23373ffffffffffffffffffffffffffffffffffffffff167f75e161b3e824b114fc1a33274bd7091918dd4e639cede50b78b15a4eea956a21848388604051620011a39392919062003191565b60405180910390a250505050620011b962001fe9565b50565b60056020528060005260406000206000915054906101000a900473ffffffffffffffffffffffffffffffffffffffff1681565b600381815481106200120057600080fd5b90600052602060002090600802016000915090508060000160009054906101000a900473ffffffffffffffffffffffffffffffffffffffff16908060010160009054906101000a900473ffffffffffffffffffffffffffffffffffffffff16908060020154908060030154908060040154905085565b60006003805490508210620012c2576040517f08c379a0000000000000000000000000000000000000000000000000000000008152600401620012b99062002c24565b60405180910390fd5b600060038381548110620012db57620012da62002c46565b5b9060005260206000209060080201905060008160050160008673ffffffffffffffffffffffffffffffffffffffff1673ffffffffffffffffffffffffffffffffffffffff168152602001908152602001600020549050600081036200134657600092505050620014d0565b6000620013d68360060160008873ffffffffffffffffffffffffffffffffffffffff1673ffffffffffffffffffffffffffffffffffffffff168152602001908152602001600020548460070160008973ffffffffffffffffffffffffffffffffffffffff1673ffffffffffffffffffffffffffffffffffffffff1681526020019081526020016000205462002450565b90506000429050600084600201548560060160008a73ffffffffffffffffffffffffffffffffffffffff1673ffffffffffffffffffffffffffffffffffffffff1681526020019081526020016000205462001432919062002f82565b905080821062001440578091505b6000838362001450919062002fea565b905060006127108760020154670de0b6b3a76400008960030154620014769190620031ce565b62001482919062003248565b6200148e919062003248565b90506000670de0b6b3a7640000878385620014aa9190620031ce565b620014b69190620031ce565b620014c2919062003248565b905080985050505050505050505b92915050565b6000620014e262001e4e565b60008585858533604051620014f79062002474565b6200150795949392919062003309565b604051809103906000f08015801562001524573d6000803e3d6000fd5b5090506002819080600181540180825580915050600190039060005260206000200160009091909190916101000a81548173ffffffffffffffffffffffffffffffffffffffff021916908373ffffffffffffffffffffffffffffffffffffffff1602179055507f75d1eb2d61d7e210835bc16e78ac4d0e4f905c108a81852a6b68c4d46b4f40f381878787604051620015c1949392919062003374565b60405180910390a180915050949350505050565b620015df62001f97565b600380549050811062001629576040517f08c379a0000000000000000000000000000000000000000000000000000000008152600401620016209062002c24565b60405180910390fd5b600062001637338362001276565b9050600081116200167f576040517f08c379a000000000000000000000000000000000000000000000000000000000815260040162001676906200341f565b60405180910390fd5b6200168c81338462001ff2565b4260038381548110620016a457620016a362002c46565b5b906000526020600020906008020160070160003373ffffffffffffffffffffffffffffffffffffffff1673ffffffffffffffffffffffffffffffffffffffff16815260200190815260200160002081905550600382815481106200170d576200170c62002c46565b5b906000526020600020906008020160010160009054906101000a900473ffffffffffffffffffffffffffffffffffffffff1673ffffffffffffffffffffffffffffffffffffffff1663a9059cbb33836040518363ffffffff1660e01b81526004016200177b92919062003164565b6020604051808303816000875af11580156200179b573d6000803e3d6000fd5b505050506040513d601f19601f82011682018060405250810190620017c1919062002f21565b503373ffffffffffffffffffffffffffffffffffffffff167f092aa588fea04f5f76814b8a23143fd3dcd203961584367074e84589e12425ad82846040516200180c92919062002fbd565b60405180910390a2506200181f62001fe9565b50565b600660205281600052604060002081815481106200183f57600080fd5b906000526020600020016000915091509054906101000a900473ffffffffffffffffffffffffffffffffffffffff1681565b3373ffffffffffffffffffffffffffffffffffffffff168173ffffffffffffffffffffffffffffffffffffffff1603620018e2576040517f08c379a0000000000000000000000000000000000000000000000000000000008152600401620018d99062003491565b60405180910390fd5b600073ffffffffffffffffffffffffffffffffffffffff16600560003373ffffffffffffffffffffffffffffffffffffffff1673ffffffffffffffffffffffffffffffffffffffff16815260200190815260200160002060009054906101000a900473ffffffffffffffffffffffffffffffffffffffff1673ffffffffffffffffffffffffffffffffffffffff1614620019b3576040517f08c379a0000000000000000000000000000000000000000000000000000000008152600401620019aa9062003503565b60405180910390fd5b600460008273ffffffffffffffffffffffffffffffffffffffff1673ffffffffffffffffffffffffffffffffffffffff16815260200190815260200160002060009054906101000a900460ff1662001a42576040517f08c379a000000000000000000000000000000000000000000000000000000000815260040162001a399062003575565b60405180910390fd5b80600560003373ffffffffffffffffffffffffffffffffffffffff1673ffffffffffffffffffffffffffffffffffffffff16815260200190815260200160002060006101000a81548173ffffffffffffffffffffffffffffffffffffffff021916908373ffffffffffffffffffffffffffffffffffffffff160217905550600660008273ffffffffffffffffffffffffffffffffffffffff1673ffffffffffffffffffffffffffffffffffffffff168152602001908152602001600020339080600181540180825580915050600190039060005260206000200160009091909190916101000a81548173ffffffffffffffffffffffffffffffffffffffff021916908373ffffffffffffffffffffffffffffffffffffffff16021790555050565b62001b6d62001e4e565b600073ffffffffffffffffffffffffffffffffffffffff168173ffffffffffffffffffffffffffffffffffffffff160362001bdf576040517f08c379a000000000000000000000000000000000000000000000000000000000815260040162001bd6906200360d565b60405180910390fd5b62001bea8162001ed3565b50565b60046020528060005260406000206000915054906101000a900460ff1681565b62001c1762001f97565b600380549050811062001c61576040517f08c379a000000000000000000000000000000000000000000000000000000000815260040162001c589062002c24565b60405180910390fd5b600062001c6f338362001276565b90508281101562001cb7576040517f08c379a000000000000000000000000000000000000000000000000000000000815260040162001cae906200367f565b60405180910390fd5b426003838154811062001ccf5762001cce62002c46565b5b906000526020600020906008020160070160003373ffffffffffffffffffffffffffffffffffffffff1673ffffffffffffffffffffffffffffffffffffffff168152602001908152602001600020819055506003828154811062001d385762001d3762002c46565b5b906000526020600020906008020160010160009054906101000a900473ffffffffffffffffffffffffffffffffffffffff1673ffffffffffffffffffffffffffffffffffffffff1663a9059cbb33856040518363ffffffff1660e01b815260040162001da692919062003164565b6020604051808303816000875af115801562001dc6573d6000803e3d6000fd5b505050506040513d601f19601f8201168201806040525081019062001dec919062002f21565b503373ffffffffffffffffffffffffffffffffffffffff167f092aa588fea04f5f76814b8a23143fd3dcd203961584367074e84589e12425ad848460405162001e3792919062002fbd565b60405180910390a25062001e4a62001fe9565b5050565b62001e586200246c565b73ffffffffffffffffffffffffffffffffffffffff1662001e7862000d78565b73ffffffffffffffffffffffffffffffffffffffff161462001ed1576040517f08c379a000000000000000000000000000000000000000000000000000000000815260040162001ec890620036f1565b60405180910390fd5b565b60008060009054906101000a900473ffffffffffffffffffffffffffffffffffffffff169050816000806101000a81548173ffffffffffffffffffffffffffffffffffffffff021916908373ffffffffffffffffffffffffffffffffffffffff1602179055508173ffffffffffffffffffffffffffffffffffffffff168173ffffffffffffffffffffffffffffffffffffffff167f8be0079c531659141344cd1fd0a4f28419497f9722a3daafe3b4186f6b6457e060405160405180910390a35050565b60026001540362001fdf576040517f08c379a000000000000000000000000000000000000000000000000000000000815260040162001fd69062003763565b60405180910390fd5b6002600181905550565b60018081905550565b60006064600585620020059190620031ce565b62002011919062003248565b905060006064600386620020269190620031ce565b62002032919062003248565b905060006064600187620020479190620031ce565b62002053919062003248565b90506000600560008773ffffffffffffffffffffffffffffffffffffffff1673ffffffffffffffffffffffffffffffffffffffff16815260200190815260200160002060009054906101000a900473ffffffffffffffffffffffffffffffffffffffff1690506000600560008373ffffffffffffffffffffffffffffffffffffffff1673ffffffffffffffffffffffffffffffffffffffff16815260200190815260200160002060009054906101000a900473ffffffffffffffffffffffffffffffffffffffff1690506000600560008373ffffffffffffffffffffffffffffffffffffffff1673ffffffffffffffffffffffffffffffffffffffff16815260200190815260200160002060009054906101000a900473ffffffffffffffffffffffffffffffffffffffff1690506000600388815481106200219a576200219962002c46565b5b90600052602060002090600802019050600073ffffffffffffffffffffffffffffffffffffffff168473ffffffffffffffffffffffffffffffffffffffff161462002288578060010160009054906101000a900473ffffffffffffffffffffffffffffffffffffffff1673ffffffffffffffffffffffffffffffffffffffff1663a9059cbb85896040518363ffffffff1660e01b81526004016200224092919062003164565b6020604051808303816000875af115801562002260573d6000803e3d6000fd5b505050506040513d601f19601f8201168201806040525081019062002286919062002f21565b505b600073ffffffffffffffffffffffffffffffffffffffff168373ffffffffffffffffffffffffffffffffffffffff161462002366578060010160009054906101000a900473ffffffffffffffffffffffffffffffffffffffff1673ffffffffffffffffffffffffffffffffffffffff1663a9059cbb84886040518363ffffffff1660e01b81526004016200231e92919062003164565b6020604051808303816000875af11580156200233e573d6000803e3d6000fd5b505050506040513d601f19601f8201168201806040525081019062002364919062002f21565b505b600073ffffffffffffffffffffffffffffffffffffffff168273ffffffffffffffffffffffffffffffffffffffff161462002444578060010160009054906101000a900473ffffffffffffffffffffffffffffffffffffffff1673ffffffffffffffffffffffffffffffffffffffff1663a9059cbb83876040518363ffffffff1660e01b8152600401620023fc92919062003164565b6020604051808303816000875af11580156200241c573d6000803e3d6000fd5b505050506040513d601f19601f8201168201806040525081019062002442919062002f21565b505b50505050505050505050565b60008183101562002462578162002464565b825b905092915050565b600033905090565b611de3806200378683390190565b600081519050919050565b600082825260208201905092915050565b6000819050602082019050919050565b600073ffffffffffffffffffffffffffffffffffffffff82169050919050565b6000819050919050565b6000620024f9620024f3620024ed84620024ae565b620024ce565b620024ae565b9050919050565b60006200250d82620024d8565b9050919050565b6000620025218262002500565b9050919050565b620025338162002514565b82525050565b600062002547838362002528565b60208301905092915050565b6000602082019050919050565b60006200256d8262002482565b6200257981856200248d565b935062002586836200249e565b8060005b83811015620025bd578151620025a1888262002539565b9750620025ae8362002553565b9250506001810190506200258a565b5085935050505092915050565b60006020820190508181036000830152620025e6818462002560565b905092915050565b6000604051905090565b600080fd5b600080fd5b60006200260f82620024ae565b9050919050565b620026218162002602565b81146200262d57600080fd5b50565b600081359050620026418162002616565b92915050565b6000819050919050565b6200265c8162002647565b81146200266857600080fd5b50565b6000813590506200267c8162002651565b92915050565b600080604083850312156200269c576200269b620025f8565b5b6000620026ac8582860162002630565b9250506020620026bf858286016200266b565b9150509250929050565b620026d48162002647565b82525050565b6000602082019050620026f16000830184620026c9565b92915050565b60006020828403121562002710576200270f620025f8565b5b600062002720848285016200266b565b91505092915050565b620027348162002514565b82525050565b600060208201905062002751600083018462002729565b92915050565b600060ff82169050919050565b6200276f8162002757565b81146200277b57600080fd5b50565b6000813590506200278f8162002764565b92915050565b60008060408385031215620027af57620027ae620025f8565b5b6000620027bf858286016200266b565b9250506020620027d2858286016200277e565b9150509250929050565b60008060408385031215620027f657620027f5620025f8565b5b600062002806858286016200266b565b925050602062002819858286016200266b565b9150509250929050565b6000806000806080858703121562002840576200283f620025f8565b5b6000620028508782880162002630565b9450506020620028638782880162002630565b935050604062002876878288016200266b565b925050606062002889878288016200266b565b91505092959194509250565b620028a08162002602565b82525050565b6000602082019050620028bd600083018462002895565b92915050565b600060208284031215620028dc57620028db620025f8565b5b6000620028ec8482850162002630565b91505092915050565b6000620029028262002500565b9050919050565b6200291481620028f5565b82525050565b600060a08201905062002931600083018862002909565b62002940602083018762002909565b6200294f6040830186620026c9565b6200295e6060830185620026c9565b6200296d6080830184620026c9565b9695505050505050565b600080fd5b600080fd5b6000601f19601f8301169050919050565b7f4e487b7100000000000000000000000000000000000000000000000000000000600052604160045260246000fd5b620029cc8262002981565b810181811067ffffffffffffffff82111715620029ee57620029ed62002992565b5b80604052505050565b600062002a03620025ee565b905062002a118282620029c1565b919050565b600067ffffffffffffffff82111562002a345762002a3362002992565b5b62002a3f8262002981565b9050602081019050919050565b82818337600083830152505050565b600062002a7262002a6c8462002a16565b620029f7565b90508281526020810184848401111562002a915762002a906200297c565b5b62002a9e84828562002a4c565b509392505050565b600082601f83011262002abe5762002abd62002977565b5b813562002ad084826020860162002a5b565b91505092915050565b6000806000806080858703121562002af65762002af5620025f8565b5b600085013567ffffffffffffffff81111562002b175762002b16620025fd565b5b62002b258782880162002aa6565b945050602085013567ffffffffffffffff81111562002b495762002b48620025fd565b5b62002b578782880162002aa6565b935050604062002b6a878288016200266b565b925050606062002b7d878288016200277e565b91505092959194509250565b60008115159050919050565b62002ba08162002b89565b82525050565b600060208201905062002bbd600083018462002b95565b92915050565b600082825260208201905092915050565b7f496e76616c696420706f6f6c2069640000000000000000000000000000000000600082015250565b600062002c0c600f8362002bc3565b915062002c198262002bd4565b602082019050919050565b6000602082019050818103600083015262002c3f8162002bfd565b9050919050565b7f4e487b7100000000000000000000000000000000000000000000000000000000600052603260045260246000fd5b7f416d6f756e74206d7573742062652067726561746572207468616e2030000000600082015250565b600062002cad601d8362002bc3565b915062002cba8262002c75565b602082019050919050565b6000602082019050818103600083015262002ce08162002c9e565b9050919050565b7f4d696e696d756d207374616b6520416d6f756e7420726571756972652e000000600082015250565b600062002d1f601d8362002bc3565b915062002d2c8262002ce7565b602082019050919050565b6000602082019050818103600083015262002d528162002d10565b9050919050565b60008151905062002d6a8162002651565b92915050565b60006020828403121562002d895762002d88620025f8565b5b600062002d998482850162002d59565b91505092915050565b7f496e73756666696369656e742062616c616e6365000000000000000000000000600082015250565b600062002dda60148362002bc3565b915062002de78262002da2565b602082019050919050565b6000602082019050818103600083015262002e0d8162002dcb565b9050919050565b600060408201905062002e2b600083018562002895565b62002e3a602083018462002895565b9392505050565b7f496e73756666696369656e7420616c6c6f77616e636500000000000000000000600082015250565b600062002e7960168362002bc3565b915062002e868262002e41565b602082019050919050565b6000602082019050818103600083015262002eac8162002e6a565b9050919050565b600060608201905062002eca600083018662002895565b62002ed9602083018562002895565b62002ee86040830184620026c9565b949350505050565b62002efb8162002b89565b811462002f0757600080fd5b50565b60008151905062002f1b8162002ef0565b92915050565b60006020828403121562002f3a5762002f39620025f8565b5b600062002f4a8482850162002f0a565b91505092915050565b7f4e487b7100000000000000000000000000000000000000000000000000000000600052601160045260246000fd5b600062002f8f8262002647565b915062002f9c8362002647565b925082820190508082111562002fb75762002fb662002f53565b5b92915050565b600060408201905062002fd46000830185620026c9565b62002fe36020830184620026c9565b9392505050565b600062002ff78262002647565b9150620030048362002647565b92508282039050818111156200301f576200301e62002f53565b5b92915050565b600060a0820190506200303c6000830188620026c9565b6200304b602083018762002895565b6200305a604083018662002895565b620030696060830185620026c9565b620030786080830184620026c9565b9695505050505050565b6000819050919050565b6000620030ad620030a7620030a18462003082565b620024ce565b62002647565b9050919050565b620030bf816200308c565b82525050565b6000604082019050620030dc600083018562002895565b620030eb6020830184620030b4565b9392505050565b7f4e6f2062616c616e636520746f20776974686472617700000000000000000000600082015250565b60006200312a60168362002bc3565b91506200313782620030f2565b602082019050919050565b600060208201905081810360008301526200315d816200311b565b9050919050565b60006040820190506200317b600083018562002895565b6200318a6020830184620026c9565b9392505050565b6000606082019050620031a86000830186620026c9565b620031b76020830185620026c9565b620031c66040830184620026c9565b949350505050565b6000620031db8262002647565b9150620031e88362002647565b9250828202620031f88162002647565b9150828204841483151762003212576200321162002f53565b5b5092915050565b7f4e487b7100000000000000000000000000000000000000000000000000000000600052601260045260246000fd5b6000620032558262002647565b9150620032628362002647565b92508262003275576200327462003219565b5b828204905092915050565b600081519050919050565b60005b83811015620032ab5780820151818401526020810190506200328e565b60008484015250505050565b6000620032c48262003280565b620032d0818562002bc3565b9350620032e28185602086016200328b565b620032ed8162002981565b840191505092915050565b620033038162002757565b82525050565b600060a0820190508181036000830152620033258188620032b7565b905081810360208301526200333b8187620032b7565b90506200334c6040830186620026c9565b6200335b6060830185620032f8565b6200336a608083018462002895565b9695505050505050565b60006080820190506200338b600083018762002895565b81810360208301526200339f8186620032b7565b90508181036040830152620033b58185620032b7565b9050620033c66060830184620026c9565b95945050505050565b7f4e6f2070726f66697420617661696c61626c6500000000000000000000000000600082015250565b60006200340760138362002bc3565b91506200341482620033cf565b602082019050919050565b600060208201905081810360008301526200343a81620033f8565b9050919050565b7f596f752063616e6e6f7420726566657220796f757273656c6600000000000000600082015250565b60006200347960198362002bc3565b9150620034868262003441565b602082019050919050565b60006020820190508181036000830152620034ac816200346a565b9050919050565b7f526566657272657220616c726561647920736574000000000000000000000000600082015250565b6000620034eb60148362002bc3565b9150620034f882620034b3565b602082019050919050565b600060208201905081810360008301526200351e81620034dc565b9050919050565b7f526566657272616c206e6f742076616c696420756e74696c207374616b696e67600082015250565b60006200355d60208362002bc3565b91506200356a8262003525565b602082019050919050565b6000602082019050818103600083015262003590816200354e565b9050919050565b7f4f776e61626c653a206e6577206f776e657220697320746865207a65726f206160008201527f6464726573730000000000000000000000000000000000000000000000000000602082015250565b6000620035f560268362002bc3565b9150620036028262003597565b604082019050919050565b600060208201905081810360008301526200362881620035e6565b9050919050565b7f4e6f7420656e6f7567682070726f666974000000000000000000000000000000600082015250565b60006200366760118362002bc3565b915062003674826200362f565b602082019050919050565b600060208201905081810360008301526200369a8162003658565b9050919050565b7f4f776e61626c653a2063616c6c6572206973206e6f7420746865206f776e6572600082015250565b6000620036d960208362002bc3565b9150620036e682620036a1565b602082019050919050565b600060208201905081810360008301526200370c81620036ca565b9050919050565b7f5265656e7472616e637947756172643a207265656e7472616e742063616c6c00600082015250565b60006200374b601f8362002bc3565b9150620037588262003713565b602082019050919050565b600060208201905081810360008301526200377e816200373c565b905091905056fe60806040523480156200001157600080fd5b5060405162001de338038062001de383398181016040528101906200003791906200049d565b848481600390816200004a9190620007a4565b5080600490816200005c9190620007a4565b50505081600560006101000a81548160ff021916908360ff160217905550620000aa818360ff16600a62000091919062000a0e565b856200009e919062000a5f565b620000b560201b60201c565b505050505062000b96565b600073ffffffffffffffffffffffffffffffffffffffff168273ffffffffffffffffffffffffffffffffffffffff160362000127576040517f08c379a00000000000000000000000000000000000000000000000000000000081526004016200011e9062000b0b565b60405180910390fd5b6200013b600083836200022260201b60201c565b80600260008282546200014f919062000b2d565b92505081905550806000808473ffffffffffffffffffffffffffffffffffffffff1673ffffffffffffffffffffffffffffffffffffffff168152602001908152602001600020600082825401925050819055508173ffffffffffffffffffffffffffffffffffffffff16600073ffffffffffffffffffffffffffffffffffffffff167fddf252ad1be2c89b69c2b068fc378daa952ba7f163c4a11628f55a4df523b3ef8360405162000202919062000b79565b60405180910390a36200021e600083836200022760201b60201c565b5050565b505050565b505050565b6000604051905090565b600080fd5b600080fd5b600080fd5b600080fd5b6000601f19601f8301169050919050565b7f4e487b7100000000000000000000000000000000000000000000000000000000600052604160045260246000fd5b62000295826200024a565b810181811067ffffffffffffffff82111715620002b757620002b66200025b565b5b80604052505050565b6000620002cc6200022c565b9050620002da82826200028a565b919050565b600067ffffffffffffffff821115620002fd57620002fc6200025b565b5b62000308826200024a565b9050602081019050919050565b60005b838110156200033557808201518184015260208101905062000318565b60008484015250505050565b6000620003586200035284620002df565b620002c0565b90508281526020810184848401111562000377576200037662000245565b5b6200038484828562000315565b509392505050565b600082601f830112620003a457620003a362000240565b5b8151620003b684826020860162000341565b91505092915050565b6000819050919050565b620003d481620003bf565b8114620003e057600080fd5b50565b600081519050620003f481620003c9565b92915050565b600060ff82169050919050565b6200041281620003fa565b81146200041e57600080fd5b50565b600081519050620004328162000407565b92915050565b600073ffffffffffffffffffffffffffffffffffffffff82169050919050565b6000620004658262000438565b9050919050565b620004778162000458565b81146200048357600080fd5b50565b60008151905062000497816200046c565b92915050565b600080600080600060a08688031215620004bc57620004bb62000236565b5b600086015167ffffffffffffffff811115620004dd57620004dc6200023b565b5b620004eb888289016200038c565b955050602086015167ffffffffffffffff8111156200050f576200050e6200023b565b5b6200051d888289016200038c565b94505060406200053088828901620003e3565b9350506060620005438882890162000421565b9250506080620005568882890162000486565b9150509295509295909350565b600081519050919050565b7f4e487b7100000000000000000000000000000000000000000000000000000000600052602260045260246000fd5b60006002820490506001821680620005b657607f821691505b602082108103620005cc57620005cb6200056e565b5b50919050565b60008190508160005260206000209050919050565b60006020601f8301049050919050565b600082821b905092915050565b600060088302620006367fffffffffffffffffffffffffffffffffffffffffffffffffffffffffffffffff82620005f7565b620006428683620005f7565b95508019841693508086168417925050509392505050565b6000819050919050565b6000620006856200067f6200067984620003bf565b6200065a565b620003bf565b9050919050565b6000819050919050565b620006a18362000664565b620006b9620006b0826200068c565b84845462000604565b825550505050565b600090565b620006d0620006c1565b620006dd81848462000696565b505050565b5b818110156200070557620006f9600082620006c6565b600181019050620006e3565b5050565b601f82111562000754576200071e81620005d2565b6200072984620005e7565b8101602085101562000739578190505b620007516200074885620005e7565b830182620006e2565b50505b505050565b600082821c905092915050565b6000620007796000198460080262000759565b1980831691505092915050565b600062000794838362000766565b9150826002028217905092915050565b620007af8262000563565b67ffffffffffffffff811115620007cb57620007ca6200025b565b5b620007d782546200059d565b620007e482828562000709565b600060209050601f8311600181146200081c576000841562000807578287015190505b62000813858262000786565b86555062000883565b601f1984166200082c86620005d2565b60005b8281101562000856578489015182556001820191506020850194506020810190506200082f565b8683101562000876578489015162000872601f89168262000766565b8355505b6001600288020188555050505b505050505050565b7f4e487b7100000000000000000000000000000000000000000000000000000000600052601160045260246000fd5b60008160011c9050919050565b6000808291508390505b60018511156200091957808604811115620008f157620008f06200088b565b5b6001851615620009015780820291505b80810290506200091185620008ba565b9450620008d1565b94509492505050565b60008262000934576001905062000a07565b8162000944576000905062000a07565b81600181146200095d576002811462000968576200099e565b600191505062000a07565b60ff8411156200097d576200097c6200088b565b5b8360020a9150848211156200099757620009966200088b565b5b5062000a07565b5060208310610133831016604e8410600b8410161715620009d85782820a905083811115620009d257620009d16200088b565b5b62000a07565b620009e78484846001620008c7565b9250905081840481111562000a015762000a006200088b565b5b81810290505b9392505050565b600062000a1b82620003bf565b915062000a2883620003bf565b925062000a577fffffffffffffffffffffffffffffffffffffffffffffffffffffffffffffffff848462000922565b905092915050565b600062000a6c82620003bf565b915062000a7983620003bf565b925082820262000a8981620003bf565b9150828204841483151762000aa35762000aa26200088b565b5b5092915050565b600082825260208201905092915050565b7f45524332303a206d696e7420746f20746865207a65726f206164647265737300600082015250565b600062000af3601f8362000aaa565b915062000b008262000abb565b602082019050919050565b6000602082019050818103600083015262000b268162000ae4565b9050919050565b600062000b3a82620003bf565b915062000b4783620003bf565b925082820190508082111562000b625762000b616200088b565b5b92915050565b62000b7381620003bf565b82525050565b600060208201905062000b90600083018462000b68565b92915050565b61123d8062000ba66000396000f3fe608060405234801561001057600080fd5b50600436106100a95760003560e01c80633950935111610071578063395093511461016857806370a082311461019857806395d89b41146101c8578063a457c2d7146101e6578063a9059cbb14610216578063dd62ed3e14610246576100a9565b806306fdde03146100ae578063095ea7b3146100cc57806318160ddd146100fc57806323b872dd1461011a578063313ce5671461014a575b600080fd5b6100b6610276565b6040516100c39190610b1a565b60405180910390f35b6100e660048036038101906100e19190610bd5565b610308565b6040516100f39190610c30565b60405180910390f35b61010461032b565b6040516101119190610c5a565b60405180910390f35b610134600480360381019061012f9190610c75565b610335565b6040516101419190610c30565b60405180910390f35b610152610364565b60405161015f9190610ce4565b60405180910390f35b610182600480360381019061017d9190610bd5565b61037b565b60405161018f9190610c30565b60405180910390f35b6101b260048036038101906101ad9190610cff565b6103b2565b6040516101bf9190610c5a565b60405180910390f35b6101d06103fa565b6040516101dd9190610b1a565b60405180910390f35b61020060048036038101906101fb9190610bd5565b61048c565b60405161020d9190610c30565b60405180910390f35b610230600480360381019061022b9190610bd5565b610503565b60405161023d9190610c30565b60405180910390f35b610260600480360381019061025b9190610d2c565b610526565b60405161026d9190610c5a565b60405180910390f35b60606003805461028590610d9b565b80601f01602080910402602001604051908101604052809291908181526020018280546102b190610d9b565b80156102fe5780601f106102d3576101008083540402835291602001916102fe565b820191906000526020600020905b8154815290600101906020018083116102e157829003601f168201915b5050505050905090565b6000806103136105ad565b90506103208185856105b5565b600191505092915050565b6000600254905090565b6000806103406105ad565b905061034d85828561077e565b61035885858561080a565b60019150509392505050565b6000600560009054906101000a900460ff16905090565b6000806103866105ad565b90506103a78185856103988589610526565b6103a29190610dfb565b6105b5565b600191505092915050565b60008060008373ffffffffffffffffffffffffffffffffffffffff1673ffffffffffffffffffffffffffffffffffffffff168152602001908152602001600020549050919050565b60606004805461040990610d9b565b80601f016020809104026020016040519081016040528092919081815260200182805461043590610d9b565b80156104825780601f1061045757610100808354040283529160200191610482565b820191906000526020600020905b81548152906001019060200180831161046557829003601f168201915b5050505050905090565b6000806104976105ad565b905060006104a58286610526565b9050838110156104ea576040517f08c379a00000000000000000000000000000000000000000000000000000000081526004016104e190610ea1565b60405180910390fd5b6104f782868684036105b5565b60019250505092915050565b60008061050e6105ad565b905061051b81858561080a565b600191505092915050565b6000600160008473ffffffffffffffffffffffffffffffffffffffff1673ffffffffffffffffffffffffffffffffffffffff16815260200190815260200160002060008373ffffffffffffffffffffffffffffffffffffffff1673ffffffffffffffffffffffffffffffffffffffff16815260200190815260200160002054905092915050565b600033905090565b600073ffffffffffffffffffffffffffffffffffffffff168373ffffffffffffffffffffffffffffffffffffffff1603610624576040517f08c379a000000000000000000000000000000000000000000000000000000000815260040161061b90610f33565b60405180910390fd5b600073ffffffffffffffffffffffffffffffffffffffff168273ffffffffffffffffffffffffffffffffffffffff1603610693576040517f08c379a000000000000000000000000000000000000000000000000000000000815260040161068a90610fc5565b60405180910390fd5b80600160008573ffffffffffffffffffffffffffffffffffffffff1673ffffffffffffffffffffffffffffffffffffffff16815260200190815260200160002060008473ffffffffffffffffffffffffffffffffffffffff1673ffffffffffffffffffffffffffffffffffffffff168152602001908152602001600020819055508173ffffffffffffffffffffffffffffffffffffffff168373ffffffffffffffffffffffffffffffffffffffff167f8c5be1e5ebec7d5bd14f71427d1e84f3dd0314c0f7b2291e5b200ac8c7c3b925836040516107719190610c5a565b60405180910390a3505050565b600061078a8484610526565b90507fffffffffffffffffffffffffffffffffffffffffffffffffffffffffffffffff811461080457818110156107f6576040517f08c379a00000000000000000000000000000000000000000000000000000000081526004016107ed90611031565b60405180910390fd5b61080384848484036105b5565b5b50505050565b600073ffffffffffffffffffffffffffffffffffffffff168373ffffffffffffffffffffffffffffffffffffffff1603610879576040517f08c379a0000000000000000000000000000000000000000000000000000000008152600401610870906110c3565b60405180910390fd5b600073ffffffffffffffffffffffffffffffffffffffff168273ffffffffffffffffffffffffffffffffffffffff16036108e8576040517f08c379a00000000000000000000000000000000000000000000000000000000081526004016108df90611155565b60405180910390fd5b6108f3838383610a80565b60008060008573ffffffffffffffffffffffffffffffffffffffff1673ffffffffffffffffffffffffffffffffffffffff16815260200190815260200160002054905081811015610979576040517f08c379a0000000000000000000000000000000000000000000000000000000008152600401610970906111e7565b60405180910390fd5b8181036000808673ffffffffffffffffffffffffffffffffffffffff1673ffffffffffffffffffffffffffffffffffffffff16815260200190815260200160002081905550816000808573ffffffffffffffffffffffffffffffffffffffff1673ffffffffffffffffffffffffffffffffffffffff168152602001908152602001600020600082825401925050819055508273ffffffffffffffffffffffffffffffffffffffff168473ffffffffffffffffffffffffffffffffffffffff167fddf252ad1be2c89b69c2b068fc378daa952ba7f163c4a11628f55a4df523b3ef84604051610a679190610c5a565b60405180910390a3610a7a848484610a85565b50505050565b505050565b505050565b600081519050919050565b600082825260208201905092915050565b60005b83811015610ac4578082015181840152602081019050610aa9565b60008484015250505050565b6000601f19601f8301169050919050565b6000610aec82610a8a565b610af68185610a95565b9350610b06818560208601610aa6565b610b0f81610ad0565b840191505092915050565b60006020820190508181036000830152610b348184610ae1565b905092915050565b600080fd5b600073ffffffffffffffffffffffffffffffffffffffff82169050919050565b6000610b6c82610b41565b9050919050565b610b7c81610b61565b8114610b8757600080fd5b50565b600081359050610b9981610b73565b92915050565b6000819050919050565b610bb281610b9f565b8114610bbd57600080fd5b50565b600081359050610bcf81610ba9565b92915050565b60008060408385031215610bec57610beb610b3c565b5b6000610bfa85828601610b8a565b9250506020610c0b85828601610bc0565b9150509250929050565b60008115159050919050565b610c2a81610c15565b82525050565b6000602082019050610c456000830184610c21565b92915050565b610c5481610b9f565b82525050565b6000602082019050610c6f6000830184610c4b565b92915050565b600080600060608486031215610c8e57610c8d610b3c565b5b6000610c9c86828701610b8a565b9350506020610cad86828701610b8a565b9250506040610cbe86828701610bc0565b9150509250925092565b600060ff82169050919050565b610cde81610cc8565b82525050565b6000602082019050610cf96000830184610cd5565b92915050565b600060208284031215610d1557610d14610b3c565b5b6000610d2384828501610b8a565b91505092915050565b60008060408385031215610d4357610d42610b3c565b5b6000610d5185828601610b8a565b9250506020610d6285828601610b8a565b9150509250929050565b7f4e487b7100000000000000000000000000000000000000000000000000000000600052602260045260246000fd5b60006002820490506001821680610db357607f821691505b602082108103610dc657610dc5610d6c565b5b50919050565b7f4e487b7100000000000000000000000000000000000000000000000000000000600052601160045260246000fd5b6000610e0682610b9f565b9150610e1183610b9f565b9250828201905080821115610e2957610e28610dcc565b5b92915050565b7f45524332303a2064656372656173656420616c6c6f77616e63652062656c6f7760008201527f207a65726f000000000000000000000000000000000000000000000000000000602082015250565b6000610e8b602583610a95565b9150610e9682610e2f565b604082019050919050565b60006020820190508181036000830152610eba81610e7e565b9050919050565b7f45524332303a20617070726f76652066726f6d20746865207a65726f2061646460008201527f7265737300000000000000000000000000000000000000000000000000000000602082015250565b6000610f1d602483610a95565b9150610f2882610ec1565b604082019050919050565b60006020820190508181036000830152610f4c81610f10565b9050919050565b7f45524332303a20617070726f766520746f20746865207a65726f20616464726560008201527f7373000000000000000000000000000000000000000000000000000000000000602082015250565b6000610faf602283610a95565b9150610fba82610f53565b604082019050919050565b60006020820190508181036000830152610fde81610fa2565b9050919050565b7f45524332303a20696e73756666696369656e7420616c6c6f77616e6365000000600082015250565b600061101b601d83610a95565b915061102682610fe5565b602082019050919050565b6000602082019050818103600083015261104a8161100e565b9050919050565b7f45524332303a207472616e736665722066726f6d20746865207a65726f20616460008201527f6472657373000000000000000000000000000000000000000000000000000000602082015250565b60006110ad602583610a95565b91506110b882611051565b604082019050919050565b600060208201905081810360008301526110dc816110a0565b9050919050565b7f45524332303a207472616e7366657220746f20746865207a65726f206164647260008201527f6573730000000000000000000000000000000000000000000000000000000000602082015250565b600061113f602383610a95565b915061114a826110e3565b604082019050919050565b6000602082019050818103600083015261116e81611132565b9050919050565b7f45524332303a207472616e7366657220616d6f756e742065786365656473206260008201527f616c616e63650000000000000000000000000000000000000000000000000000602082015250565b60006111d1602683610a95565b91506111dc82611175565b604082019050919050565b60006020820190508181036000830152611200816111c4565b905091905056fea2646970667358221220ffedb12bbfbab6f2252617aec8950e386a958ca76d923bf97412f78088fc1b7a64736f6c63430008180033a2646970667358221220db4982fb6986d4221eb9a065ba0719e6002c919207b97de7c9eebd34cf14286a64736f6c63430008180033",
  "linkReferences": {},
  "deployedLinkReferences": {}
}